:100000000A128A1112280800FE00030E8316031339
:10001000A2000408A3000A08A4007F08A5000A168D
:100020008A11322D0A128A11152883160313D7015B
:10003000D801D901DA01DB01DC01DD010317E70199
:10004000E80183171030840030300A168A118F209F
:1000500083010A128A15BB2E1D0884008313000831
:10006000A000840A0008A100210883120313FF00E6
:100070008316031720088400831203130A128A11BF
:10008000EA270A128A11253A031D182C8316031732
:100090001D088400013083138007840A0318800A36
:1000A0000313D701D8010030DD00FF30D900FF3045
:1000B000DA000317A401782883165D1403171D08BE
:1000C0008400013083138007840A0318800A78288B
:1000D0008316DD145E2883165D155E288316DD15F4
:1000E0005E2883165D165E28013083160317A40070
:1000F0002408031DA3281D08840083130008A00002
:10010000840A0008A100210883120313FF0083164C
:10011000031720088400831203130A128A11EA27A6
:100120000A128A11203A03196E28033A031971281A
:10013000083A03196B28063A03195C281D3A03197B
:1001400068287428782803135D1CA828FD30DD0575
:1001500003171D080313B80003171E080313B90083
:100160000A168A11FD250A128A113908D8003808A2
:10017000D700D81FC1285D14D709D809D70A031999
:10018000D80A03171D08840083130008A000840AFE
:100190000008A100210883120313FF008316031730
:1001A00020088400831203130A128A11EA270A1214
:1001B0008A112E3A031DF628831603171D088400A2
:1001C000013083138007840A0318800A1D08031373
:1001D000B80003171E080313B9000A168A11FD257B
:1001E0000A128A113908DA003808D9008316031771
:1001F0001D08840083130008A000840A0008A100E1
:10020000210883120313FF008316031720088400BC
:10021000831203130A128A11EA270A128A11633A17
:10022000031D4029831603171D0884000130831322
:100230008007840A0318800A1E08840083171F1C85
:1002400083130008FF00023080077F0884008317B3
:100250000008A5001B080313BF0003171C080313A5
:10026000C000031725080313C1000A168A1191253F
:10027000400803179C0003133F0803179B00080066
:10028000831603171D08840083130008AA00840A3C
:1002900000088403AB002B0883120313FF008316AE
:1002A00003172A088400831203130A128A11EA270B
:1002B0000A128A1183160317A50086290130AA079E
:1002C0000318AB0A0030AB072B0883120313FF009F
:1002D000831603172A088400831203130A128A1153
:1002E000EA270A128A11683A031DA62948308316A4
:1002F0000317A5000130AA070318AB0A0030AB07AB
:10030000A6296930A500A629A501A6292508583ADD
:10031000031981293C3A031981290C3A03195E29F2
:10032000013A03198129073A03198129013A03196E
:1003300081291B3A03197A29013A031981290D3AB7
:1003400003198129023A03197A298429831603178C
:100350002B0883120313FF00831603172A08840057
:10036000831203130A128A11EA270A128A11643AC5
:100370000319F429831603172B0883120313FF00B4
:10038000831603172A088400831203130A128A11A2
:10039000EA270A128A11693A0319F429372AE2294D
:1003A0001E08840083171F1C83130008FF000230FF
:1003B00080077F08840083170008A600A701A61BFA
:1003C000A703072A1E08840083171F1C8313000835
:1003D000FF00023080077F08840083170008A60012
:1003E000840A0008A700072A831603172508483A3D
:1003F0000319D029203A0319CF29013A0319CF292B
:100400001D3A0319E2290E3A0319E229072A01309D
:10041000A00020082A07A2002B08A1000318A10AA7
:10042000A01BA1032108A3001D0884002208831338
:1004300080002308840A800084031B080313CF0074
:1004400003171C080313D000031727080313D20057
:10045000031726080313D1000A128A15CD25500868
:1004600003179C0003134F0803179B000800831613
:1004700003172B0883120313FF00831603172A08A0
:100480008400831203130A128A11EA270A128A11BE
:10049000783A0319AE2A831603172B088312031325
:1004A000FF00831603172A088400831203130A121D
:1004B0008A11EA270A128A11583A0319AE2A8316BA
:1004C00003172B0883120313FF00831603172A0850
:1004D0008400831203130A128A11EA270A128A116E
:1004E0006F3A0319AE2A831603172B0883120313DE
:1004F000FF00831603172A088400831203130A12CD
:100500008A11EA270A128A11753A0319AE2A5A2B60
:100510009C2A1E08840083171F1C83130008FF00F9
:10052000023080077F08840083170008A000A10123
:100530002008A6002108AC2A1E08840083171F1C6F
:1005400083130008FF00023080077F0884008317B0
:100550000008A600840A0008A700C12A8316031712
:100560002508483A0319892A203A0319882A013AAA
:100570000319882A1D3A03199C2A0E3A03199C2A4A
:10058000C12A0130A00020082A07A2002B08A100E0
:100590000318A10AA01BA1032108A3001D088400C1
:1005A0002208831380002308840A800084033E2BE2
:1005B000831603171B080313CF0003171C0803132C
:1005C000D000031727080313D200031726080313CC
:1005D000D1000A128A156522500803179C000313E4
:1005E0004F0803179B000800831603171B0803130B
:1005F000CF0003171C080313D000031727080313A9
:10060000D200031726080313D1000A128A150E21FF
:10061000500803179C0003134F0803179B000800A2
:10062000831603171B080313CF0003171C080313BB
:10063000D000031727080313D2000317260803135B
:10064000D10003172B0883120313FF00831603172F
:100650002A088400831203130A128A11EA270A1255
:100660008A118316D3000A128A15E2245008031750
:100670009C0003134F0803179B0008002B088312EC
:100680000313FF00831603172A0884008312031341
:100690000A128A11EA270A128A11583A0319102BF2
:1006A000373A0319D82A1A3A0319F42A0D3A0319CA
:1006B000102B5A2B831603172B0883120313FF00EA
:1006C000831603172A088400831203130A128A115F
:1006D000EA270A128A116E3A0319A42BD02B882B11
:1006E0001E08840083171F1C83130008FF000230BC
:1006F00080077F08840083170008A000840A000890
:10070000A100200884008317211C83136708A22BF3
:100710001E08840083171F1C83130008FF0002308B
:1007200080077F08840083170008A000840A00085F
:10073000A100200884008317211C83136708800010
:10074000840A68088000B72B831603172508483AE7
:100750000319702B203A03196F2B013A03196F2BE1
:100760001D3A0319882B0E3A0319882BB72B013039
:10077000A00020082A07A2002B08A1000318A10A44
:10078000A01BA1032108A3001D08840022088313D5
:1007900080002308840A800084039B019C010800D8
:1007A000831603171D08840083130008A000840A21
:1007B0000008A100210883120313FF00831603170A
:1007C00020088400831203130A128A11EA270A12EE
:1007D0008A11253A031D0D2C831603171D0884006A
:1007E000013083138007840A0318800A253003131D
:1007F000B2000030B30003171B080313B400031743
:100800001C080313B5000A168A116D2701308316E0
:1008100003179B0000309C000800831603171D0877
:100820008400013083138007840A0318800ACD2BCB
:10083000831603171D08840083130008A000840A90
:100840000008A100210883120313FF008316031779
:1008500020088400831203130A128A11EA270A125D
:100860008A1183160317A200A30122080313B20002
:10087000031723080313B30003171B080313B40063
:1008800003171C080313B5000A168A116D270A12F4
:100890008A11831603171D08840001308313800713
:1008A000840A0318800A062C410884008313000878
:1008B000C400840A0008C5004508FF0044088400FD
:1008C0000A128A11EA270A128A11253A031DBF2F3C
:1008D00041088400013083138007840A0318800ACA
:1008E0008316D701D8010030DD00FF30D900FF307A
:1008F000DA008312C801962C83165D148312410816
:100900008400013083138007840A0318800A962C20
:100910008316DD147E2C83165D157E2C8316DD1563
:100920007E2C83165D167E2C0130C8004808031DFE
:10093000BB2C4108840083130008C400840A00080B
:10094000C5004508FF00440884000A128A11EA27FE
:100950000A128A11203A03198E2C033A0319912C9A
:10096000083A03198B2C063A03197C2C1D3A0319FB
:10097000882C942C962C83165D1CC02CFD30DD0534
:1009800083124108F6004208F7004308F8000A16EF
:100990008A116C260A128A1177088316D800760805
:1009A000D700D81FD92C5D14D709D809D70A031945
:1009B000D80A83124108840083130008C400840A03
:1009C0000008C5004508FF00440884000A128A1187
:1009D000EA270A128A112E3A031D062D41088400C7
:1009E000013083138007840A0318800A4108F60047
:1009F0004208F7004308F8000A168A116C260A120A
:100A00008A1177088316DA007608D9008312410824
:100A1000840083130008C400840A0008C500450848
:100A2000FF00440884000A128A11EA270A128A1178
:100A3000633A031D482D4108840001308313800769
:100A4000840A0318800A420884008317431C831316
:100A50000008C40002308007840A0008C500003086
:100A60000318800A8007440884008317451C8313F9
:100A70000008CD003F08A0004008A1004D08A200DA
:100A80000A128A1502202108C0002008BF000800B1
:100A90004108840083130008CE00840A0008840300
:100AA000CF004F08FF004E0884000A128A11EA277F
:100AB0000A128A11CD007C2D0130CE070318CF0A0F
:100AC0000030CF074F08FF004E0884000A128A1139
:100AD000EA270A128A11683A031D9C2D4830CD007E
:100AE0000130CE070318CF0A0030CF079C2D6930A4
:100AF000CD009C2DCD019C2D4D08583A0319772D22
:100B00003C3A0319772D0C3A03195C2D013A03196D
:100B1000772D073A0319772D013A0319772D1B3AE0
:100B20000319702D013A0319772D0D3A0319772D0A
:100B3000023A0319702D7A2D4F08FF004E088400E9
:100B40000A128A11EA270A128A11643A0319EC2D53
:100B50004F08FF004E0884000A128A11EA270A1281
:100B60008A11693A0319EC2D232ED12D42088400F5
:100B70008317431C83130008C40002308007840AD3
:100B80000008C50000300318800A8007440884006C
:100B90008317451C83130008C900CA01C91BCA0377
:100BA000FD2D420884008317431C83130008C400F2
:100BB00002308007840A0008C50000300318800A4C
:100BC0008007440884008317451C83130008C9006C
:100BD000840A0008CA00FD2D4D08483A0319B62DB5
:100BE000203A0319B52D013A0319B52D1D3A031901
:100BF000D12D0E3A0319D12DFD2D0130C40044082A
:100C00004E07C6004F08C5000318C50AC41BC5031C
:100C10004508C70041088400460883138000470840
:100C2000840A800084033F08AF004008B0004A08EF
:100C3000B2004908B1000A128A1501243008C00028
:100C40002F08BF0008004F08FF004E0884000A125A
:100C50008A11EA270A128A11783A03198C2E4F0852
:100C6000FF004E0884000A128A11EA270A128A112C
:100C7000583A03198C2E4F08FF004E0884000A12C0
:100C80008A11EA270A128A116F3A03198C2E4F082B
:100C9000FF004E0884000A128A11EA270A128A11FC
:100CA000753A03198C2E042F712E42088400831785
:100CB000431C83130008C40002308007840A000824
:100CC000C50000300318800A800744088400831799
:100CD000451C83130008C600C7014608C900470821
:100CE0008A2E420884008317431C83130008C40023
:100CF00002308007840A0008C50000300318800A0B
:100D00008007440884008317451C83130008C9002A
:100D1000840A0008CA009D2E4D08483A0319552E32
:100D2000203A0319542E013A0319542E1D3A03197F
:100D3000712E0E3A0319712E9D2E0130C400440805
:100D40004E07C6004F08C5000318C50AC41BC503DB
:100D50004508C700410884004608831380004708FF
:100D6000840A80008403EE2E3F08AF004008B000E4
:100D70004A08B2004908B1000A128A15AF213008AA
:100D8000C0002F08BF0008003F08AF004008B000B7
:100D90004A08B2004908B1000A128A1578203008C2
:100DA000C0002F08BF0008003F08AF004008B00097
:100DB0004A08B2004908B1004F08FF004E088400FD
:100DC0000A128A11EA270A128A11B3000A128A1536
:100DD00025233008C0002F08BF0008004F08FF007F
:100DE0004E0884000A128A11EA270A128A11583A18
:100DF0000319D42E373A0319B42E1A3A0319C42E04
:100E00000D3A0319D42E042F4F08FF004E0884001A
:100E10000A128A11EA270A128A116E3A03195C2F04
:100E2000882F352F420884008317431C8313000842
:100E3000C40002308007840A0008C500003003188F
:100E4000800A8007440884008317451C8313000828
:100E5000C600840A0008C700460884008317471CA0
:100E600083138316031767085A2F420884008317D9
:100E7000431C83130008C40002308007840A000862
:100E8000C50000300318800A8007440884008317D7
:100E9000451C83130008C600840A0008C7004608E2
:100EA00084008317471C8313831603176708800089
:100EB000840A680880006D2F4D08483A0319122FE4
:100EC000203A0319112F013A0319112F1D3A031962
:100ED000352F0E3A0319352F6D2F0130831203136E
:100EE000C40044084E07C6004F08C5000318C50AD1
:100EF000C41BC5034508C700410884004608831386
:100F000080004708840A80008403BF01C0010800F4
:100F10004108840083130008C400840A0008C50047
:100F20004508FF00440884000A128A11EA270A12C1
:100F30008A11253A031DB62F41088400013083131E
:100F40008007840A0318800A2530F0000030F10081
:100F50003F08F2004008F3000A168A11DE2601302D
:100F600083120313BF000030C00008004108840052
:100F7000013083138007840A0318800A852F4108F3
:100F8000840083130008C400840A0008C5004508D3
:100F9000FF00440884000A128A11EA270A128A1103
:100FA000C600C7014608F0004708F1003F08F200FC
:100FB0004008F3000A168A11DE260A128A118312EB
:100FC000031341088400013083138007840A031847
:100FD000800AAF2FFF1BF42F83137F18831700089D
:100FE000840A0319FF0A080007308A000408840AEB
:100FF000820700342534303434346434003408003B
:10100400831657085804031D0F2858088312A80094
:10101400831657088312A7001A285708FF3E831225
:10102400A700831658080318013EFF3E8312A80048
:1010340083165D1C2E2883122208A300A401230812
:10104400F0002408F1002008F2002108F3000A1639
:101054008A11DE260A128A1583120313A81F342864
:10106400A701A801A501A6012608803AA300280823
:10107400803A2302031D40282708250203185A2812
:101084002030F0000030F100831203132008F20036
:101094002108F3000A168A11DE260A128A15013085
:1010A40083120313A5070318A60A0030A6073628DF
:1010B400831603135D186D2883122208A300A4016C
:1010C4002308F0002408F1002008F2002108F300AE
:1010D4000A168A11DE26831203132508013EA00096
:1010E40026080318013E003EA10008008316DA1BFF
:1010F4007D28FD30DD05DA1F852801308312B30019
:101104000030B4008C285A088312B400831659089E
:101114008312B300831658088312B6008316570847
:101124008312B5001F30B7000030B8000317AF01B9
:10113400F42831083204031DBB283408803AFF0028
:1011440080307F02031DA828013033020318BB2816
:10115400831203133608803AFF0080307F02031D98
:10116400B52801303502031CF92883160313DD1C4E
:10117400F928FF3083120313B7070318B80AFF30A6
:10118400B8073708103E84000A30F0000030F10040
:101194003208F3003108F2000A168A1109220A12F1
:1011A4008A157008303E83178000FF30B307031898
:1011B400B40AFF30B407FF30B5070318B60AFF308E
:1011C400B6070A30F0000030F1003208F3003108AD
:1011D400F2000A168A11D5220A128A157108B20081
:1011E4007008B100031337083804031D9B288312C9
:1011F40003132F08A8003008A9003708103EAA00DE
:101204003608AC003508AB000A168A11D92429081F
:10121400B0002808AF000800DA1B1229FD30DD05F4
:10122400DA1F1A2901300317900000309100212998
:101234005A08031791000313590803179000031366
:1012440058080317930003135708031792001F301D
:101254009400003095008312AF018E2903135108C6
:101264005204031D522903171108803AFF008030ED
:101274007F02031D3F2901301002031852298316EF
:1012840003171308803AFF0080307F02031D4C29A6
:1012940001301202031C942983160313DD1C9429C4
:1012A400FF308316031794070318950AFF30950738
:1012B4001408103E84000A300313B2000030B30057
:1012C4005208B5005108B4000A168A1139220A12CC
:1012D4008A153208303E83178000FF3003179007C9
:1012E4000318910AFF309107FF3092070318930AFD
:1012F400FF3093070A300313B2000030B3005208E2
:10130400B5005108B4000A168A110F230A128A156F
:101314003308D2003208D1008316031714081504C9
:10132400031D3029831603134F08C7005008C80053
:1013340003171408103E0313C900031713080313FB
:10134400CB00031712080313CA000A168A11DB2301
:101354004808D0004708CF0008008316DA1BB429D8
:10136400FD30DD05DA1FBC2901308312B5000030E1
:10137400B600C3295A088312B6008316590883128B
:10138400B500831658088312B800831657088312D1
:10139400B7001F30BA000030BB000317AF010313BE
:1013A400B901262A8312031331083204031DF629D6
:1013B4003608803AFF0080307F02031DE3290130A4
:1013C40035020318F629831203133808803AFF0004
:1013D40080307F02031DF02901303702031C312ABB
:1013E40083160313DD1C312AFF3083120313BA075B
:1013F4000318BB0AFF30BB073108B9000730B90531
:101404003A08103E84003908303E83178000FF30CC
:10141400B5070318B60AFF30B607FF30B70703183D
:10142400B80AFF30B8073208B4003108B30003101B
:10143400B40CB30C0310B40CB30C0310B40CB30C05
:101444003308B1003408B2003B08803AFF00803012
:101454007F02031D2F2A01303A020318D429831274
:1014640003133908031D3B2A831659085A04031D24
:10147400512A83165D1E512AFF308312BA070318BE
:10148400BB0AFF30BB073A08103E84003030831794
:101494008000FF30B7070318B80AFF30B80783127B
:1014A4002F08A8003008A9003A08103EAA003808FE
:1014B400AC003708AB000A168A11D9242908B000F9
:1014C4002808AF000800DA1B692AFD30DD05DA1FA1
:1014D400712A01300317900000309100782A5A08CD
:1014E40003179100031359080317900003135808B6
:1014F4000317930003135708031792001F30950036
:10150400003096008312AF0183169401DF2A8316FC
:10151400031351085204031DAC2A03171108803A1F
:10152400FF0080307F02031D992A01301002031846
:10153400AC2A831603171308803AFF0080307F0219
:10154400031DA62A01301202031CEB2A831603137F
:10155400DD1CEB2AFF308316031795070318960A40
:10156400FF309607031351080317940007309405BE
:101574001508103E84001408303E83178000FF30A5
:1015840090070318910AFF309107FF309207031860
:10159400930AFF30930703135208D4005108D30071
:1015A4000310D40CD30C0310D40CD30C0310D40CA0
:1015B400D30C5308D1005408D20003171608803AFC
:1015C400FF0080307F02031DE92A01301502031851
:1015D400892A831603171408031DF52A03135908CF
:1015E4005A04031D0B2B03135D1E0B2BFF30031733
:1015F40095070318960AFF3096071508103E8400D5
:10160400303083178000FF3092070318930AFF30AD
:10161400930703134F08C7005008C80003171508A1
:10162400103E0313C900031713080313CB00031759
:1016340012080313CA000A168A11DB234808D000D3
:101644004708CF0008008316DA1B2A2BFD30DD057E
:10165400DA1F322B01308312B7000030B800392B67
:101664005A088312B800831659088312B7008316E8
:1016740058088312BA00831657088312B900310838
:1016840032040319472B0130482B0030BB0083166A
:101694005D1E562B83123B080319562BFE30B907E7
:1016A4000318BA0AFF30BA077830831233060319D5
:1016B4005D2B41305E2B6130B4000030B50034083E
:1016C400B6001F30BD000030BE000317AF019A2BD7
:1016D400FF3083120313BD070318BE0AFF30BE0791
:1016E4003108BC000F30BC050A303C0203187C2BC7
:1016F40030307E2B3608F63EBC073D08103E840091
:101704003C0883178000FF30B7070318B80AFF307E
:10171400B807FF30B9070318BA0AFF30BA07310E09
:101724000F39B100320EF039B104320E0F39B20064
:1017340003133E08803AFF0080307F02031DA42B70
:1017440002303D02031CC82B8312031331083204F8
:10175400031D6A2B3808803AFF0080307F02031D86
:10176400B52B0130370203186A2B831203133A088E
:10177400803AFF0080307F02031DC22B0130390202
:10178400031CC82B83160313DD186A2B831603135B
:101794005D1EED2B83123B080319ED2B83165908AC
:1017A4005A040319ED2BFF308312BD070318BE0A38
:1017B400FF30BE073D08103E8400330883178000C5
:1017C400FF30BD070318BE0AFF30BE073D08103EB8
:1017D40084003030800083122F08A8003008A9004C
:1017E4003D08103EAA003A08AC003908AB000A16BE
:1017F4008A11D9242908B0002808AF000800B21FB4
:10180400052C0130062C0030B9008316DA1B0C2C91
:10181400FD30DD05DA1F142C01308312B5000030D1
:10182400B6001B2C5A088312B6008316590883127B
:10183400B500831658088312B8008316570883121C
:10184400B7003908031D292C83165D1D3B2CFF307E
:101854008312B7070318B80AFF30B8073908031D05
:10186400352C2B30362C2D30B3000030B400330827
:10187400452CDD1D462CFF308312B7070318B80A28
:10188400FF30B8072030B9001F308312BA0000308F
:10189400BB000317AF01B22C8312031331083204C7
:1018A400031D702C3608803AFF0080307F02031D30
:1018B4005D2C013035020318702C83120313380891
:1018C400803AFF0080307F02031D6A2C013037020A
:1018D400031CBE2C83160313DD1CBE2CFF308312A5
:1018E4000313BA070318BB0AFF30BB073A08103EBC
:1018F40084000A30F0000030F1003208F3003108AF
:10190400F2000A168A1149230A128A157108F7008F
:101914007008F6000A168A1197200A128A157608AA
:10192400303E83178000FF30B5070318B60AFF3036
:10193400B607FF30B7070318B80AFF30B8070A30F4
:10194400F0000030F1003208F3003108F2000A160A
:101954008A112F240A128A157108B2007008B10086
:1019640003133B08803AFF0080307F02031DBC2C28
:1019740001303A0203184E2C831203133908031959
:10198400CF2CFF30BA070318BB0AFF30BB073A0855
:10199400103E84003908831780002F08A8003008FF
:1019A400A9003A08103EAA003808AC003708AB007A
:1019B4000A168A11D9242908B0002808AF000800A3
:1019C400DA1BE62CFD30DD05DA1FEE2C013003179F
:1019D400930000309400F52C5A0803179400031365
:1019E40059080317930003135808031797000313A8
:1019F4005708031796000313510852040319042DC2
:101A04000130052D00300317950003135D1E142DBE
:101A1400031715080319142DFE3096070318970AA7
:101A2400FF30970778300313530603191B2D4130F9
:101A34001C2D6130031791000030920011089000B2
:101A44001F30990000309A008312AF015C2DFF30E3
:101A540083160317990703189A0AFF309A0703138A
:101A64005108031798000F3098050A30180203181C
:101A74003D2D30303F2D1008F63E98071908103ED2
:101A84008400180883178000FF3093070318940A12
:101A9400FF309407FF3096070318970AFF30970723
:101AA4000313510E0F39D100520EF039D104520EE6
:101AB4000F39D200831603171A08803AFF008030CA
:101AC4007F02031D672D02301902031C8C2D83161F
:101AD400031351085204031D292D03171408803AD7
:101AE400FF0080307F02031D792D0130130203189B
:101AF400292D831603171708803AFF0080307F02D0
:101B0400031D862D01301602031C8C2D831603132E
:101B1400DD18292D831603135D1EB32D0317150835
:101B24000319B32D031359085A040319B32DFF30B5
:101B34000317990703189A0AFF309A071908103EE9
:101B440084000313530883178000FF300317990799
:101B540003189A0AFF309A071908103E840030309F
:101B6400800003134F08C7005008C8000317190862
:101B7400103E0313C900031717080313CB00031700
:101B840016080313CA000A168A11DB234808D0007A
:101B94004708CF000800D21FD12D0130D22D0030CC
:101BA400031796000313DA1BD92DFD30DD05DA1F68
:101BB400E12D01300317920000309300E82D5A08FC
:101BC40003179300031359080317920003135808CB
:101BD4000317950003135708031794001608031DF1
:101BE400F62D03135D1D082EFF3003179407031809
:101BF400950AFF3095071608031D022E2B30032E7D
:101C04002D309000003091001008122EDD1D132E8F
:101C1400FF30031794070318950AFF309507203007
:101C240096001F3003179700003098008312AF010D
:101C3400832E8316031351085204031D3E2E0317EB
:101C44001308803AFF0080307F02031D2B2E0130E1
:101C5400120203183E2E831603171508803AFF005C
:101C640080307F02031D382E01301402031C902E95
:101C740083160313DD1C902EFF308316031797077A
:101C84000318980AFF3098071708103E84000A309A
:101C94000313B2000030B3005208B5005108B40079
:101CA4000A168A1192230A128A153308B9003208D7
:101CB400B8000A168A11A5200A128A153808303E7F
:101CC40083178000FF30031792070318930AFF302D
:101CD4009307FF3094070318950AFF3095070A30DD
:101CE4000313B2000030B3005208B5005108B40029
:101CF4000A168A1184240A128A153308D20032087B
:101D0400D100831603171808803AFF0080307F0241
:101D1400031D8E2E0130170203181B2E8316031782
:101D240016080319A12EFF3097070318980AFF30ED
:101D340098071708103E84001608831780000313C1
:101D44004F08C7005008C80003171708103E0313B4
:101D5400C900031715080313CB0003171408031352
:101D6400CA000A168A11DB234808D0004708CF00AE
:101D74000800831687018312870183168801831262
:101D8400880101309F00803083169F000B168B174B
:101D940081010030B200B3000E30B4000030B50051
:101DA4000A168A1187210A128A1500308316031332
:101DB400B200B3003830B4000030B5000A168A11FE
:101DC40087210A128A150130831203139F002130E0
:101DD40083160317C7007530C600C60BEF2EC70B5A
:101DE400EF2EF42E831203131F151F19F72E8316DB
:101DF4001E080317C600C7014608DD004708DE00B9
:101E0400831203131E0883160317C600C70146086E
:101E1400DF004708E0006008C7005F08C600460806
:101E2400C700C6015D084604E1005E084704E200FD
:101E3400C930B1000130B2000130B3008030B400C9
:101E44006208B6006108B5000A168A11AF210A12A9
:101E54008A1500300313B200B3008030B4000030A0
:101E6400B5000A168A1187210A128A1583160317E8
:101E7400E301E4016308C93E8400831700080319E1
:101E8400642F01300313B2000030B300031763085A
:101E9400C93E84000008C600C70146080313B40005
:101EA400031747080313B5000A168A1187210A127B
:101EB4008A15013083160317E3070318E40A003078
:101EC400E4073C2F043083160317C800CF30C70043
:101ED4000130C600C60B6C2FC70B6C2FC80B6C2FC0
:101EE4000930831203139F00213083160317C700A0
:101EF4007530C600C60B7C2FC70B7C2F812F831235
:101F040003131F151F19842F83161E080317C600F9
:101F1400C7014608DD004708DE00831203131E08CC
:101F240083160317C600C7014608DF004708E00010
:101F34006008C7005F08C6004608C700C6015D0800
:101F44004604E1005E084704E200D330B1000130EA
:101F5400B2000130B3008030B4006208B6006108FA
:101F6400B5000A168A11AF210A128A15003003132C
:101F7400B200B300C030B4000030B5000A168A11B4
:101F840087210A128A1583160317E501E6016508FD
:101F9400D33E8400831700080319F12F0130031383
:101FA400B2000030B30003176508D33E8400000874
:101FB400C600C70146080313B400031747080313F8
:101FC400B5000A168A1187210A128A150130831670
:101FD4000317E5070318E60A0030E607C92F0430A3
:101FE40083160317C800CF30C7000130C600C60BE4
:0C1FF400F92FC70BF92FC80BF92FE52EB1
:10211E0064008001840A0406031900340406902822
:10212E00F71F08007609F8007709F900F80A031975
:10213E00F90A7808F6007908F7000800B91F0800B8
:10214E003809BA003909BB00BA0A0319BB0A3A08A2
:10215E00B8003B08B90008007008F200700884004F
:10216E00831700080319BE280130F007B52872083E
:10217E007002F000F101F01BF10308003208B40008
:10218E0032088400831700080319D0280130B207E3
:10219E00C72834083202B200B301B21BB3030800E1
:1021AE00F401F501701CE1287208F4070318F50A12
:1021BE007308F50701300310F20DF30DFF3E031DFA
:1021CE00E22801300310F10CF00CFF3E031DE9284C
:1021DE0070087104031DD9287508F1007408F00009
:1021EE000800B601B701321C02293408B6070318DD
:1021FE00B70A3508B70701300310B40DB50DFF3E11
:10220E00031D032901300310B30CB20CFF3E031D56
:10221E000A2932083304031DFA283708B30036089A
:10222E00B2000800701C1F29831203130814222900
:10223E008312031308107208870088142130F500EA
:10224E007630F400F40B2929F50B292900008312AE
:10225E00031388102130F5007630F400F40B352985
:10226E00F50B352900000800A601A7012608200756
:10227E00A3002308840083170008A500250803196E
:10228E0008002508A300A4012308F0002408F1008B
:10229E002108F2002208F3000A168A11DE260A1619
:1022AE008A11013083120313A6070318A70A003000
:1022BE00A7073D29C501C60145083F07C2004208D0
:1022CE00840083170008C40044080319080044085A
:1022DE00C200C3014208B2004308B3004008B40074
:1022EE004108B5000A168A116D270A168A110130A7
:1022FE0083160313C5070318C60A0030C6076329E1
:10230E00321C8D2983120313081490298312031390
:10231E000810831634088312870088142130831620
:10232E000313B7007530B600B60B9B29B70B9B296C
:10233E00A029831203138810213083160313B700CC
:10234E007530B600B60BA929B70BA929AE2908001E
:10235E00B530C5003108BA003208BB00BC01BD0162
:10236E00C301C401BA30AC000130AD003308AE0079
:10237E003408AF00C530B0000A168A119E223C0800
:10238E003107B8003208B7000318B70ABC1BB703F1
:10239E00831603173708B900380884008317391CD1
:1023AE008313800108005C30EC000030ED0058080B
:1023BE00E1005908E200E301E401EA01EB016130BA
:1023CE00D0000030D1005A08D2005B08D3006C3028
:1023DE00D4000030D5000A168A1169226308580706
:1023EE00DF005908DE000318DE0AE31BDE0383124A
:1023FE0003135E08E0005F0884008317601C8313DC
:10240E0080010800700871040319342A0130F400A9
:10241E00F11B1B2A01300310F00DF10DFF3E031DC1
:10242E00122A0130F4070F2A71087302031D212AA4
:10243E0070087202031C292A7008F2027108031C2C
:10244E00F303F30201300310F10CF00CFF3E031DF9
:10245E002A2A0130F402031D1B2A7308F1007208A8
:10246E00F0000800320833040319642A0130B60064
:10247E00B31B4B2A01300310B20DB30DFF3E031DEB
:10248E00422A0130B6073F2A33083502031D512A6E
:10249E0032083402031C592A3208B4023308031CD2
:1024AE00B503B50201300310B30CB20CFF3E031D91
:1024BE005A2A0130B602031D4B2A3508B3003408E0
:1024CE00B20008005208D6005308D700831603172F
:1024DE00E701E801831203135708FF005608840032
:1024EE000A128A11EA270A168A11003A03199B2A40
:1024FE005008BF005108C0005630C1005408C20039
:10250E005508C3000A128A1154240A168A113F086C
:10251E0083160317E7070318E80A8312031340080C
:10252E0083160317E807712AD001D10108002E087F
:10253E000313D50003172F080313D6000317E70163
:10254E00E801031356088312FF0083165508840012
:10255E0083120A128A11EA270A168A11003A0319FF
:10256E00D02A831603172C089B002D089C00D5300B
:10257E009D0030089E0001309F000A128A112C2007
:10258E000A168A111B08E7070318E80A1C08E80751
:10259E00A82A83160317AC01AD010800F401F5015A
:1025AE007008710403190A2B0130F600F11BE92A99
:1025BE0001300310F00DF10DFF3E031DE02A013036
:1025CE00F607DD2A01300310F40DF50DFF3E031D55
:1025DE00EA2A71087302031DF62A70087202031CA0
:1025EE00FF2A7008F2027108031CF303F30274143D
:1025FE0001300310F10CF00CFF3E031D002B0130D7
:10260E00F602031DE92A7508F1007408F0000800AF
:10261E00B701B801320833040319442B0130B60058
:10262E00B31B232B01300310B20DB30DFF3E031D60
:10263E001A2B0130B607172B01300310B70DB80D4A
:10264E00FF3E031D242B33083502031D302B3208A9
:10265E003402031C392B3208B4023308031CB503B1
:10266E00B502371401300310B30CB20CFF3E031D3C
:10267E003A2B0130B602031D232B3808B30037085E
:10268E00B2000800F501F31F532BF209F309F20A09
:10269E000319F30A0130F500F11F5A2BF009F10965
:1026AE00F00A0319F10A700871040319852B013021
:1026BE00F400F11B6C2B01300310F00DF10DFF3EF9
:1026CE00031D632B0130F407602B71087302031D89
:1026DE00722B70087202031C7A2B7008F2027108BA
:1026EE00031CF303F30201300310F10CF00CFF3E58
:1026FE00031D7B2B0130F402031D6C2B750803198F
:10270E008D2BF209F309F20A0319F30A7308F1008B
:10271E007208F0000800B701B51F9C2BB409B5096B
:10272E00B40A0319B50A0130B700B31FA32BB209BF
:10273E00B309B20A0319B30A320833040319CE2BB4
:10274E000130B600B31BB52B01300310B20DB30D23
:10275E00FF3E031DAC2B0130B607A92B3308350203
:10276E00031DBB2B32083402031CC32B3208B402E8
:10277E003308031CB503B50201300310B30CB20CC1
:10278E00FF3E031DC42B0130B602031DB52B3708C7
:10279E000319D62BB409B509B40A0319B50A3508BD
:1027AE00B3003408B20008005D1CE82B4908BF00D6
:1027BE004708C0004808C1000A168A1161210A168E
:1027CE008A11CB1FEC2BCA01CB01CD01CE014E08D5
:1027DE00803ACC004B08803A4C02031DF82B4A0875
:1027EE004D020318122C203083160313B200003052
:1027FE00B3004708B4004808B5000A168A116D27C1
:10280E000A168A11013083160313CD070318CE0A58
:10281E000030CE07EE2B831603135D18212C4908CA
:10282E00BF004708C0004808C1000A168A1161217E
:10283E000A168A114908B2000A168A11C5204A08DA
:10284E003207C7004B0803184B0A3307C8000800AD
:10285E00F501F11F392CF009F109F00A0319F10AFB
:10286E000130F500F31F422CF209F309F20A0319A5
:10287E00F30A0130F506F601F70170087104031929
:10288E00772C0130F400F11B562C01300310F00DA3
:10289E00F10DFF3E031D4D2C0130F4074A2C013083
:1028AE000310F60DF70DFF3E031D572C7108730232
:1028BE00031D632C70087202031C6C2C7008F2024C
:1028CE007108031CF303F302761401300310F10CAC
:1028DE00F00CFF3E031D6D2C0130F402031D562C2F
:1028EE00750803197F2CF609F709F60A0319F70A7A
:1028FE007708F1007608F0000800B701B31F8E2CA0
:10290E00B209B309B20A0319B30A0130B700B51FF1
:10291E00972CB409B509B40A0319B50A0130B706E4
:10292E00B801B901320833040319CC2C0130B600BA
:10293E00B31BAB2C01300310B20DB30DFF3E031DC4
:10294E00A22C0130B6079F2C01300310B80DB90D23
:10295E00FF3E031DAC2C33083502031DB82C320884
:10296E003402031CC12C3208B4023308031CB50315
:10297E00B502381401300310B30CB20CFF3E031D28
:10298E00C22C0130B602031DAB2C37080319D42C10
:10299E00B809B909B80A0319B90A3908B3003808D1
:1029AE00B200080083165D1CE82C83122A08A000D2
:1029BE002808A1002908A2000A168A113B210A162E
:1029CE008A118312AC1FED2CAB01AC01AD01AE012F
:1029DE002E08803AFD002C08803A7D02031DF92C4A
:1029EE002B082D020318132D2030F0000030F100BB
:1029FE00831203132808F2002908F3000A168A111D
:102A0E00DE260A168A11013083120313AD0703184E
:102A1E00AE0A0030AE07EF2C831603135D18232D7C
:102A2E0083122A08A0002808A1002908A2000A166D
:102A3E008A113B210A168A1183122A08F0000A16FF
:102A4E008A11B3202B087007A8002C0803182C0A33
:102A5E007107A90008008B1C862D5B08013EDB0068
:102A6E005C080318013E003EDC00A6308312D8003D
:102A7E000030D9006430DA00B430DB0083165C0815
:102A8E008312DD0083165B088312DC000A168A119E
:102A9E00DA210A168A110030F000F100C930F20076
:102AAE000030F3000A168A1119210A168A118316AC
:102ABE000313B001B1013008A63E84008313000851
:102ACE000319852D0130F0000030F1003008A63ECC
:102ADE0084000008A000A1012008F2002108F300E4
:102AEE000A168A1119210A168A1101308316031348
:102AFE00B0070318B10A0030B107622D8B102508FC
:102B0E00FF0024088A0023088400220E8300FE0E94
:102B1E007E0E090057085804031D9A2D5808C70049
:102B2E005708C600A22D5708FF3EC60058080318C6
:102B3E00013EFF3EC7005D1CB42D4108C200C3011B
:102B4E004208B2004308B3003F08B4004008B50085
:102B5E000A168A116D270A168A1183160313C71FC8
:102B6E00BA2DC601C701C401C5014508803AC2008D
:102B7E004708803A4202031DC62D46084402031838
:102B8E00E02D203083160313B2000030B3003F084F
:102B9E00B4004008B5000A168A116D270A168A116C
:102BAE00013083160313C4070318C50A0030C50786
:102BBE00BC2D831603135D18F22D4108C200C3010C
:102BCE004208B2004308B3003F08B4004008B50005
:102BDE000A168A116D27831603134408013EBF009F
:102BEE0045080318013E003EC0000800BD01BE01AD
:102BFE003808840083130008BA00840A0008BB005A
:102C0E003B088312FF0083163A08840083120A12CF
:102C1E008A11EA270A168A112A3A031D4B2E8316A9
:102C2E0038088400013083138007840A0318800A51
:102C3E003908840083170008FF00023080077F08E0
:102C4E0084000008BD00840A0008BE00672E3E08FE
:102C5E00B3003D08B2000A30B4000030B5000A16C9
:102C6E008A11F8200A168A113C083207BD0000307E
:102C7E00031801303307BE00380884000130831377
:102C8E008007840A0318800A831638088400831389
:102C9E000008BA00840A0008BB003B088312FF003C
:102CAE0083163A08840083120A128A11EA270A163A
:102CBE008A11D03E8316BC000A303C02031C2E2E15
:102CCE003E08B9003D08B8000800FC01FD01760879
:102CDE00840083130008F900840A0008FA007A08B9
:102CEE00FF00790884000A128A11EA270A168A114F
:102CFE002A3A031DC22E7608840001308313800702
:102D0E00840A0318800A770884008317781C8313BB
:102D1E000008F90002308007840A0008FA0000302B
:102D2E000318800A80077908840083177A1C83139E
:102D3E000008FC00840A0008FD00D92E7D08F10071
:102D4E007C08F0000A30F2000030F3000A168A11F7
:102D5E00D7200A168A117B087007FC000030031872
:102D6E0001307107FD00760884000130831380075F
:102D7E00840A0318800A7608840083130008F90079
:102D8E00840A0008FA007A08FF00790884000A1203
:102D9E008A11EA270A168A11D03EFB000A307B02FE
:102DAE00031CA52E7D08F7007C08F60008007208AB
:102DBE0073040319E62E72087304031DEB2E7008BC
:102DCE000A128A11032008007208093EF4007308E3
:102DDE000318013E003EF500740884008317751C2D
:102DEE0083130008F600840A0008F70076087704BB
:102DFE000319312F7208093EF40073080318013EBF
:102E0E00003EF500740884008317751C83130008B8
:102E1E00F600840A0008F7007208023EF8007308F4
:102E2E000318013E003EF900780884008317791CD0
:102E3E0083130008FA00840A0008FB007B08803A1E
:102E4E00FC007708803A7C02031D2F2F76087A0249
:102E5E0003180800720884008317731C831300087C
:102E6E00F400840A0008F5007208023EF6007308AA
:102E7E000318013E003EF700760884008317771C86
:102E8E00831300087407F9007508F8000318F80A90
:102E9E00801BF8037808FA007908840083177A1CDF
:102EAE008313700880007208023EF4007308031842
:102EBE00013E003EF500740884008317751C8313D1
:102ECE0001308007840A0318800A0800340835048C
:102EDE000319752F34083504031D7A2F32080A1290
:102EEE008A11FF2708003408093EB600350803187A
:102EFE00013E003EB700360884008317371C83134B
:102F0E000008B800840A0008B9003808390403190B
:102F1E00C02F3408093EB60035080318013E003EA6
:102F2E00B700360884008317371C83130008B800D7
:102F3E00840A0008B9003408023EBA0035080318A6
:102F4E00013E003EBB003A08840083173B1C8313EE
:102F5E000008BC00840A0008BD003D08803ABE008F
:102F6E003908803A3E02031DBE2F38083C02031872
:102F7E00080083160313340884008317351C83134B
:102F8E000008B600840A0008B7003408023EB800F4
:102F9E0035080318013E003EB90038088400831737
:102FAE00391C831300083607BB003708BA00031814
:102FBE00BA0A801BBA03831603133A08BC003B08F7
:102FCE00840083173C1C8313320880003408023EB1
:102FDE00B60035080318013E003EB70036088400DF
:102FEE008317371C831301308007840A0318800A65
:022FFE000800C9
:02400E003A3F37
:00000001FF
