:060000000A128A11D32F41
:100B3C0034343534003400340034003400340034A0
:100B4C0000340034003400340034003400347E08A7
:100B5C008A007F0882000A128A11AD250A128A11B6
:100B6C008000840A04087D0603190034FF0A031967
:100B7C00FE0AB12D30342A340034003400340034F1
:100B8C0000340034003400340034003400340034B9
:100B9C0000343334363430342A34003400340034E6
:100BAC000034003400340034003400340034003499
:100BBC007018E12DE52D831203130714E82D831211
:100BCC00031307107208880087142130F500763063
:100BDC00F400F40BEF2DF50BEF2D00008312031333
:100BEC0087102130F5007630F400F40BFB2DF50B5B
:100BFC00FB2D00000800FA01FB011F2E0130F00054
:100C0C000030F1007A087607F700770884000008B6
:100C1C00F800F9017808F2007908F3000A128A1139
:100C2C00DE250A128A110130FA070318FB0A00307C
:100C3C00FB077A087607F70077088400831300080F
:100C4C00031D292E2A2E042E08003334313435345A
:100C5C002A340034003400340034003400340034BE
:100C6C0000340034003400343234373430342A3415
:100C7C0000340034003400340034003400340034C8
:100C8C000034003400343234323435342A340034F5
:100C9C0000340034003400340034003400340034A8
:100CAC00003400343134383430342A3400340034D5
:100CBC000034003400340034003400340034003488
:100CCC0000343134333435342A34003400340034B5
:100CDC000034003400340034003400340034003468
:100CEC00393430342A3400340034003400340034C5
:100CFC0000340034003400340034003400348316E3
:100D0C0003138801870183120313880187010730BD
:100D1C0083160313810007308600073083120313F8
:100D2C0086000030F000F1000E30F2000030F300CD
:100D3C000A128A11DE250A128A11DC308400CD30A9
:100D4C0083120313A0000F30A10083130008A2002C
:100D5C00040AA3002008840022088000040AA000D2
:100D6C0023088400A10BAB2EDB3084002430A000C0
:100D7C000F30A10083170008A200040AA30020086A
:100D8C008400831322088000040AA0002308840036
:100D9C00A10BC02ECC3084003330A0000F30A1004A
:100DAC0083170008A200040AA30020088400831300
:100DBC0022088000040AA00023088400A10BD62E70
:100DCC00BD3084004230A0000F30A1008317000812
:100DDC00A200040AA30020088400831322088000C8
:100DEC00040AA00023088400A10BEC2EAE30840072
:100DFC005130A0000F30A10083170008A200040A94
:100E0C00A30020088400831322088000040AA00099
:100E1C0023088400A10B022F9F3084006030A000B7
:100E2C000F30A10083170008A200040AA3002008B9
:100E3C008400831322088000040AA0002308840085
:100E4C00A10B182F90308400A030A0000F30A1000F
:100E5C0083170008A200040AA3002008840083134F
:100E6C0022088000040AA00023088400A10B2E2F66
:100E7C001F308400AF30A0000F30A1008317000892
:100E8C00A200040AA3002008840083132208800017
:100E9C00040AA00023088400A10B442F1030840006
:100EAC00BE30A0000F30A10083170008A200040A76
:100EBC00A30020088400831322088000040AA000E9
:100ECC0023088400A10B5A2F8611061686160618C5
:100EDC00702F712F6A2F061C742F752F712F0030F5
:100EEC00F000F1000130F2000030F3000A128A1118
:100EFC00DE250A128A110030F000F1008030F20079
:100F0C000030F3000A128A11DE250A128A11CD3044
:100F1C00F6000A128A1101260A128A110130F00019
:100F2C000030F100DF30F2000030F3000A128A11B9
:100F3C00DE250A128A110130F0000030F100643015
:100F4C00F2000030F3000A128A11DE250A128A110F
:100F5C000130F0000030F1006530F2000030F30099
:100F6C000A128A11DE250A128A110130F0000030B3
:100F7C00F1006730F2000030F3000A128A11DE250E
:100F8C000A128A118312031307158711071287128D
:100F9C0007136A2F0A128A1100288317EA30FD0002
:100FAC000630FE002B30FF00903084000A128A11AC
:100FBC00B1250A128A112E30FD000530FE00C0301A
:100FCC00FF00103084000A128A11B1250A128A110E
:100FDC008313EB30FD000530FE009E30FF00DC304B
:100FEC0084000A128A11B1250A128A1183010A128D
:040FFC008A11852EA3
:02400E003A3F37
:00000001FF
