:060000000A128A11FC2F18
:100E64008316031386018701831203138601FF305F
:100E7400831203138600033087000D30F200AF3075
:100E8400F100B630F000F00B452FF10B452FF20BBB
:100E9400452F0000FF3083120313860001308700C2
:100EA4000D30F200AF30F100B630F000F00B582FE7
:100EB400F10B582FF20B582F0000FF30831203134D
:100EC400860087010D30F200AF30F100B630F0003B
:100ED400F00B6A2FF10B6A2FF20B6A2F00007F30A0
:100EE4008312031386000D30F200AF30F100B630E8
:100EF400F000F00B7B2FF10B7B2FF20B7B2F00000C
:100F04003F308312031386000D30F200AF30F1003E
:100F1400B630F000F00B8C2FF10B8C2FF20B8C2FD2
:100F240000001F308312031386000D30F200AF302F
:100F3400F100B630F000F00B9D2FF10B9D2FF20B5A
:100F44009D2F00000F308312031386000D30F20032
:100F5400AF30F100B630F000F00BAE2FF10BAE2F36
:100F6400F20BAE2F000007308312031386000D30FE
:100F7400F200AF30F100B630F000F00BBF2FF10BF0
:100F8400BF2FF20BBF2F0000033083120313860020
:100F94000D30F200AF30F100B630F000F00BD02F7E
:100FA400F10BD02FF20BD02F00000130831203136A
:100FB40086000D30F200AF30F100B630F000F00BD7
:100FC400E12FF10BE12FF20BE12F00008312031349
:100FD40086010D30F200AF30F100B630F000F00BB6
:100FE400F12FF10BF12FF20BF12F0000392F0A1220
:0C0FF4008A11002883010A128A11322F92
:02400E003A3F37
:00000001FF
