:060000000A128A11EE2F26
:100EAE0020342034203441344D344D3455342034E4
:100EBE002034203400347E088A007F0882000A1213
:100ECE008A1162270A128A118000840A04087D069C
:100EDE0003190034FF0A0319FE0A662F7018782FC3
:100EEE007C2F8312031307147F2F83120313071013
:100EFE007208880087142130F5007630F400F40B68
:100F0E00862FF50B862F00008312031387102130D6
:100F1E00F5007630F400F40B922FF50B922F0000B3
:100F2E0008008316031388018701831203138801B7
:100F3E0087012D3084002030F6000B30F70083132C
:100F4E000008F800040AF90076088400780880008A
:100F5E00040AF60079088400F70BA62F0030F00083
:100F6E00F1000E30F2000030F3000A128A117527DC
:100F7E000A128A1183120313AB01AC01E12F013067
:100F8E00F0000030F1002B08203E84000008F6002F
:100F9E00F7017608F2007708F3000A128A11752716
:100FAE000A128A11013083120313AB070318AC0A1D
:100FBE000030AC072B08203E840083130008031D6D
:100FCE00E92FEA2FC62FEA2F0A128A11002883135F
:100FDE003830FD000730FE005730FF002D30840002
:100FEE000A128A1166270A128A1183010A128A11BD
:020FFE00982F2A
:02400E003A3F37
:00000001FF
