:060000000A128A11EE2F26
:100E50007E088A007F0882000A128A1128270A1257
:100E60008A118000840A04087D0603190034FF0AF1
:100E70000319FE0A2C2F483465346C346C346F34FB
:100E80005F345F34573465346C3463346F346D349D
:100E900065345F345F3443346C3461347334733499
:100EA00000347018542F582F8312031306155B2F2C
:100EB0008312031306117208870006162130F5000D
:100EC0007630F400F40B622FF50B622F00008312D2
:100ED000031306122130F5007630F400F40B6E2F68
:100EE000F50B6E2F0000080083160313870186019F
:100EF0008312031387018601383084002030F60006
:100F00001630F70083130008F800040AF900760889
:100F1000840078088000040AF60079088400F70B42
:100F2000822F0030F000F1000E30F2000030F300AC
:100F30000A128A1151270A128A110030F000F100BA
:100F40003830F2000030F3000A128A1151270A12D9
:100F50008A110030F000F1001C30F2000030F30084
:100F60000A128A1151270A128A110030F000F1008A
:100F70001430F2000030F3000A128A1151270A12CD
:100F80008A1183120313B601B701E12F0130F0007B
:100F90000030F1003608203E84000008F600F7011A
:100FA0007608F2007708F3000A128A1151270A1214
:100FB0008A11013083120313B6070318B70A0030F1
:100FC000B7073608203E840083130008031DE92F6D
:100FD000EA2FC62FEA2F0A128A11002883134E30F7
:100FE000FD000730FE003B30FF00383084000A125D
:100FF0008A112C270A128A1183010A128A11742F6E
:02400E003A3F37
:00000001FF
