:060000000A128A11FC2F18
:100EDE008312031388100815881108160800831250
:100EEE0003138814081188150812080083120313BF
:100EFE00881008118815081208008312031388142D
:100F0E0008118811081208008316031381010F308F
:100F1E0086008801831203138801061C972F982FD1
:100F2E00AD2F861C9B2F9C2FAD2FA22F0A128A113C
:100F3E0076270A128A1183120313061CA72FA82FD5
:100F4E00F82F8618AB2FAC2F9D2F942F0618B02F8D
:100F5E00B12FC62F861CB42FB52FC62FBB2F0A124A
:100F6E008A117D270A128A11831203130618C02FC5
:100F7E00C12F942F8618C42FC52FB62F942F061C61
:100F8E00C92FCA2FDF2F8618CD2FCE2FDF2FD42FAC
:100F9E000A128A1184270A128A1183120313061C5D
:100FAE00D92FDA2FF82F861CDD2FDE2FCF2F942F7F
:100FBE000618E22FE32F942F8618E62FE72F942F93
:100FCE00ED2F0A128A116F270A128A118312031348
:100FDE000618F22FF32F942F861CF62FF72FE82FDB
:100FEE00942F942F0A128A11002883010A128A1153
:020FFE008B2F37
:02400E003A3F37
:00000001FF
