:060000000A128A11FC2F18
:100CF00070187B2E7F2E831203130814822E83120A
:100D0000031308107208870088142130F50076302C
:100D1000F400F40B892EF50B892E000083120313C7
:100D200088102130F5007630F400F40B952EF50B89
:100D3000952E000008008316031387018801831293
:100D40000313880187018316031381010F30860086
:100D50000030F000F1000E30F2000030F3000A1213
:100D60008A1178260A128A11831203130612861634
:100D7000061786170618BD2EBE2ECF2E061CC12EB6
:100D8000C22EBE2E0130F0000030F1003130F200F2
:100D90000030F3000A128A1178260A128A1183128F
:100DA000031306128616061786178618D82ED92E14
:100DB000EA2E861CDC2EDD2ED92E0130F00000300C
:100DC000F1003230F2000030F3000A128A11782666
:100DD0000A128A1183120313061286160617861743
:100DE0000619F32EF42E052F061DF72EF82EF42EDD
:100DF0000130F0000030F1003330F2000030F30039
:100E00000A128A1178260A128A118312031306160F
:100E100086120617861706180E2F0F2F202F061C76
:100E2000122F132F0F2F0130F0000030F10034305B
:100E3000F2000030F3000A128A1178260A128A1191
:100E40008312031306168612061786178618292F93
:100E50002A2F3B2F861C2D2F2E2F2A2F0130F000FA
:100E60000030F1003530F2000030F3000A128A1130
:100E700078260A128A1183120313061686120617A1
:100E800086170619442F452F562F061D482F492F28
:100E9000452F0130F0000030F1003630F200003014
:100EA000F3000A128A1178260A128A118312031398
:100EB000061686160613861706185F2F602F712FE9
:100EC000061C632F642F602F0130F0000030F1000A
:100ED0003730F2000030F3000A128A1178260A1225
:100EE0008A118312031306168616061386178618B0
:100EF0007A2F7B2F8C2F861C7E2F7F2F7B2F01300C
:100F0000F0000030F1003830F2000030F3000A1237
:100F10008A1178260A128A1183120313061686167E
:100F2000061386170619952F962FA72F061D992FA2
:100F30009A2F962F0130F0000030F1003930F20086
:100F40000030F3000A128A1178260A128A118312DD
:100F5000031306168616061786130618B02FB12F30
:100F6000C22F061CB42FB52FB12F0130F000003076
:100F7000F1002A30F2000030F3000A128A117826BC
:100F80000A128A1183120313061686160617861391
:100F90008618CB2FCC2FDD2F861CCF2FD02FCC2F18
:100FA0000130F0000030F1003030F2000030F3008A
:100FB0000A128A1178260A128A118312031306165E
:100FC0008616061786130619E62FE72FB42E061D80
:100FD000EA2FEB2FE72F0130F0000030F100233033
:100FE000F2000030F3000A128A1178260A128A11E0
:100FF000B42E0A128A11002883010A128A119B2E2C
:02400E003A3F37
:00000001FF
