:100000000A128A11EC2F00308A000408840A820741
:0C001000003425343034343464340034BF
:1005F400080064008001840A040603190034040618
:10060400FC2AF71B062B072B082B132B7609F80063
:100614007709F900F80A0319F90A7808F600790845
:10062400F70008007018172B1B2B831203130814F0
:100634001E2B8312031308107208870088142130BC
:10064400F5007630F400F40B252BF50B252B000078
:100654008312031388102130F5007630F400F40B74
:10066400312BF50B312B00000800831203134908CA
:10067400CB00492B4708BB004808BC004B30BD00E9
:100684004A08BE000A128A1177260A128A118312B6
:1006940003134B0884000A128A1103200A128A11D8
:1006A400003A031D562B572B3C2BC701C8010800E9
:1006B4004E3083120313D1004C08D2000030D30013
:1006C400D401D501DB01DC015230C7000030C80081
:1006D4004D08C9005130CA000A128A1137230A1280
:1006E4008A118312031354084C07D0005008840065
:1006F400831380010800F401F501701C822B832B05
:10070400892B7208F4070318F50A7308F5070130FA
:100714000310F20DF30DFF3E031D8A2B013003106D
:10072400F10CF00CFF3E031D912B70087104031DA6
:100734009C2B9D2B7F2B7508F1007408F00008009A
:1007440083120313A601A701BF2B2508A300A4014C
:100754002308F0002408F1002108F2002208F30025
:100764000A128A112D250A128A11013083120313E9
:10077400A6070318A70A0030A70726082007A30026
:100784002308840083130008A5002508031DCB2B30
:10079400CC2BA72B080083120313631CD22BD32B5F
:1007A400DE2B2A08A0002808A1002908A2000A12AA
:1007B4008A11A2230A128A1183120313AC1FE32B9A
:1007C400E42BE62BAB01AC01AD01AE01002C2030D3
:1007D400F0000030F100831203132808F200290806
:1007E400F3000A128A112D250A128A11013083128C
:1007F4000313AD070318AE0A0030AE072E08803A83
:10080400FD002C08803A7D02031D0A2C2B082D02C2
:10081400031C0D2C0E2CE92B831203136318132CC9
:10082400142C1F2C2A08A0002808A1002908A200C3
:100834000A128A11A2230A128A110800F901FA0184
:10084400760884008313000884000A128A110320A6
:100854000A128A112A3A031D302C312C5D2C760899
:10086400840001308007770884000008FF0002300C
:1008740080077F0884000008F900840A0008FA0051
:100884006E2C7A08F1007908F0000A30F20000308A
:10089400F3000A128A117D230A128A11780870075C
:1008A400F9000030031801307107FA00760884005B
:1008B40001308313800776088400000884000A123C
:1008C4008A1103200A128A11D03EF8000A307802F5
:1008D400031C6D2C6E2C432C7A08F7007908F60063
:1008E4000800F501F31F772C782C7F2CF209F3090B
:1008F400F20A0319F30A0130F500F11F822C832C4C
:10090400882CF009F109F00A0319F10A700871043E
:1009140003198D2C8E2CBB2C0130F4009A2C013041
:100924000310F00DF10DFF3E031D922C0130F4076E
:10093400F11F9D2C9E2C912C71087302031DA42C75
:1009440070087202031CA72CA82CAE2C7008F202AB
:100954007108031CF303F30201300310F10CF00CD3
:10096400FF3E031DAF2C0130F402031DBA2CBB2C37
:100974009E2C75080319BF2CC02CC52CF209F30951
:10098400F20A0319F30A7308F1007208F000080070
:10099400F501F11FCE2CCF2CD62CF009F109F00A69
:1009A4000319F10A0130F500F31FD92CDA2CE12CDC
:1009B400F209F309F20A0319F30A0130F506F60104
:1009C400F701700871040319E82CE92C1E2D01307D
:1009D400F400F52C01300310F00DF10DFF3E031D62
:1009E400ED2C0130F407F11FF82CF92CEC2C01301C
:1009F4000310F60DF70DFF3E031DFA2C7108730268
:100A0400031D062D70087202031C092D0A2D112DD9
:100A14007008F2027108031CF303F3027614013028
:100A24000310F10CF00CFF3E031D122D0130F402F3
:100A3400031D1D2D1E2DF92C75080319222D232DA0
:100A4400282DF609F709F60A0319F70A7708F100C1
:100A54007608F0000800720873040319322D332D50
:100A6400392D72087304031D382D392D402D70085B
:100A74000A128A11FA220A128A11C62D7208093E34
:100A8400F40073080318013E003EF5007408840066
:100A94008317751C83130008F600840A0008F70006
:100AA400760877040319572D582D8A2D7208093EAC
:100AB400F40073080318013E003EF5007408840036
:100AC4008317751C83130008F600840A0008F700D6
:100AD4007208023EF80073080318013E003EF90054
:100AE400780884008317791C83130008FA00840AA9
:100AF4000008FB007B08803AFC007708803A7C02FF
:100B0400031D862D76087A020318892D8A2DC62D99
:100B1400720884008317731C83130008F400840A8A
:100B24000008F5007208023EF60073080318013E3F
:100B3400003EF700760884008317771C83130008AF
:100B44007407F9007508F8000318F80A801FAB2D24
:100B5400F8037808FA007908840083177A1C831351
:100B6400700880007208023EF40073080318013E06
:100B7400003EF500740884008317751C831301304C
:100B84008007840A0318800A080083160313880167
:100B94008701831203138801870101309F0080308D
:100BA400831603139F000030F000F1000E30F200B2
:100BB4000030F3000A128A1114230A128A118312D4
:100BC40003131F151F19E72DE82DE42D83160313B6
:100BD4001E0883120313DD00DE015D088316031370
:100BE400CA00831203135E0883160313CB00831217
:100BF40003131E08DD00DE015D0883160313CC0019
:100C0400831203135E0883160313CD004D08831269
:100C14000313DE00831603134C0883120313DD0051
:100C24005D08DE00DD01831603134A0883120313F3
:100C34005D0483160313CE004B08831203135E0472
:100C440083160313CF00C03083120313CC0001308A
:100C5400CD00831603134F0883120313CF008316AA
:100C640003134E0883120313CE000A128A115A2367
:100C74000A128A110030F000F1008030F2000030D6
:100C8400F3000A128A1114230A128A118316031319
:100C9400D001D1016A2E0130F0000030F10050087B
:100CA400C03E8400000883120313DD00DE015D08EA
:100CB400F2005E08F3000A128A1114230A128A1140
:100CC400013083160313D0070318D10A0030D1076B
:100CD4005008C03E840083130008031D722E732E37
:100CE4004D2EE12D0A128A110028831203133D08A8
:100CF40084008313000884000A128A1103200A1254
:100D04008A11253A031D872E882E0F2F3D08840053
:100D140001308007DF01E0010030E300FF30E10033
:100D2400FF30E200C501AC2EE3143D08840001301D
:100D34008007AC2E0130C500AC2E3D0884000008AD
:100D440084000A128A1103200A128A11303A031904
:100D5400962E9C2E45080319B02EB12E9F2E3D08C9
:100D6400F6003E08F7000A128A1120240A128A119A
:100D7400770883120313E0007608DF00E01FC32E18
:100D8400C42ECA2E6314DF09E009DF0A0319E00A3E
:100D94003D08840083130008C600460884000A1234
:100DA4008A1103200A128A11643A0319DA2EDB2EFF
:100DB400E72E460884000A128A1103200A128A11B7
:100DC400693A031DE62EE72E072F3E08840000082B
:100DD400FF00023080077F0884000008C100840AF5
:100DE4000008C2003D0884004608013E80003B081C
:100DF400AF003C08B0004208B2004108B1000A123A
:100E04008A1129270A128A11282F831203133D08F5
:100E14008400013083138007282F3D0884000008D4
:100E240084000A128A1103200A128A11BF00C00129
:100E34003F08F0004008F1003B08F2003C08F300D2
:100E44000A128A112D250A128A11072F080001306F
:100E540083120313B500B21B302F322F0130332F0E
:100E64000030B8006008B7005F08B60038080319FE
:100E74003C2F3D2F532FFF30B6070318B70AFF301E
:100E8400B7073808031D472F482F4D2F2B30B300C9
:100E94000030B400512F2D30B3000030B4003308BB
:100EA400B8001F30B9000030BA0083160313BF0125
:100EB4009A2FFF30B9070318BA0AFF30BA07390866
:100EC400A03E84000A30F0000030F1003208F30044
:100ED4003108F2000A128A1173240A128A11710865
:100EE400F7007008F6000A128A1103230A128A1105
:100EF4007608303E8313800083120313B501FF305C
:100F0400B6070318B70AFF30B7070A30F0000030FD
:100F1400F1003208F3003108F2000A128A11CA24DF
:100F24000A128A11710883120313B2007008B10007
:100F340083123A08803AFF0080307F02031DA42FF9
:100F440001303902031CA72FA82FC82F83120313C3
:100F540031083204031DAF2FB02F5B2F3508031D5A
:100F6400B42FB52F5B2F3708803AFF0080307F0203
:100F7400031DBE2F01303602031CC12FC22FC82F00
:100F840083120313E318C72FC82F5B2F8312031395
:100F940038080319CE2FCF2FDB2FFF30B9070318E2
:100FA400BA0AFF30BA073908A03E84003808831310
:100FB40080002F08A8003008A9003908A03EAA0024
:100FC4003708AC003608AB000A128A11CD230A1286
:100FD4008A11080083120313DF01E001E101E20139
:100FE400E3018313A0308400C0300A128A11FB226B
:0C0FF4000A128A1183010A128A11C72D0B
:02400E003A3F37
:00000001FF
