:060000000A128A11FC2F18
:100E66007018362F3A2F8312031306173D2F83125D
:100E7600031306137208880086172130F5007630B2
:100E8600F400F40B442FF50B442F000083120313D8
:100E960086132130F5007630F400F40B502FF50B55
:100EA600502F0000080010308316031387008601B8
:100EB6008801940120308312031394000030F0005F
:100EC600F1000E30F2000030F3000A128A113327C7
:100ED6000A128A110130F0000030F1004130F200B0
:100EE6000030F3000A128A1133270A128A1183127C
:100EF600031306140D30F800AF30F700B630F600D5
:100F0600F60B832FF70B832FF80B832F000083122A
:100F160003130610033093008C1D922F932F8F2FEF
:100F26008C110230F8004530F700A930F600F60BB8
:100F36009A2FF70B9A2FF80B9A2FA12F83120313D0
:100F460093018C1DA72FA82FA42F8C110230F80017
:100F56004530F700A930F600F60BAF2FF70BAF2F91
:100F6600F80BAF2FB62F8312031393018C1DBC2FE2
:100F7600BD2FB92F8C110230F8004530F700A9308B
:100F8600F600F60BC42FF70BC42FF80BC42FCB2F8C
:100F9600FF308312031393008C1DD22FD32FCF2F34
:100FA6008C111308F600F7017608F9007708FA00A5
:100FB6000230F8004530F700A930F600F60BE12FB5
:100FC600F70BE12FF80BE12FE82F8312031306141A
:100FD6000130F0000030F1007A08F3007908F200E1
:100FE6000A128A1133270A128A11F82F0A128A1155
:0A0FF600002883010A128A11562F09
:02400E003A3F37
:00000001FF
