:060000000A128A11FC2F18
:100E1E00F3007318132F172F8312031306141A2FB0
:100E2E008312031306107008880086142130F20016
:100E3E007630F100F10B212FF20B212F00008312DF
:100E4E00031386102130F2007630F100F10B2D2FB6
:100E5E00F20B2D2F00000800F1008316031311145E
:100E6E0083128C1D3B2F3C2F372F8C11A0309300FB
:100E7E008C1D422F432F3F2F8C11710893008C1D18
:100E8E00492F4A2F462F8C11700893008C1D502F1E
:100E9E00512F4D2F8C1183160313911483128C1D19
:100EAE00592F5A2F552F8C11A13093008C1D602F66
:100EBE00612F5D2F8C1183160313911583128C1DD8
:100ECE00692F6A2F652F8C111308F20083160313F6
:100EDE009116111683128C1D752F762F712F8C1172
:100EEE0083160313111583128C1D7E2F7F2F7A2FDD
:100EFE008C117208080083160313880186012830AE
:100F0E0083120313940018308316031393000D30CD
:100F1E00F600AF30F500B630F400F40B942FF50B5D
:100F2E00942FF60B942F00000E30F00000300A12B2
:100F3E008A110F270A128A110530F00000300A12AA
:100F4E008A1133270A128A11F7007708F000013050
:100F5E000A128A110F270A128A110630F000003089
:100F6E000A128A1133270A128A11F7007708F00045
:100F7E0001300A128A110F270A128A110730F00067
:100F8E0000300A128A1133270A128A11F7007708E5
:100F9E00F00001300A128A110F270A128A11083046
:100FAE00F00000300A128A1133270A128A11F70054
:100FBE007708F00001300A128A110F270A128A11DF
:100FCE000930F00000300A128A1133270A128A11F2
:100FDE00F7007708F00001300A128A110F270A1263
:100FEE008A11F82F0A128A11002883010A128A1117
:020FFE00822F40
:02400E003A3F37
:00000001FF
