:060000000A128A11E42F30
:100EF80048344C344F340034831203133508A300AC
:100F08003408A2003308A1003208A0008316031396
:100F18000C168C1624309800903083120313980016
:100F2800403083160313990083120313AE01AF01F7
:100F3800831203138C1EA12FA22F9C2F2E08243E50
:100F480084001A08831380008C120130AE0703183E
:100F5800AF0A0030AF072F08803AFF0080307F02C9
:100F6800031DB82F03302E02031CBB2FBC2F9C2F50
:100F780083120313B001B101831203133008243E16
:100F880084008313000899000C1ECB2FCC2FC82F88
:100F98000C120130B0070318B10A0030B10731084C
:100FA800803AFF0080307F02031DDC2F03303002BF
:100FB800031CDF2FE02FC02FE02F0A128A11002810
:100FC8000A128A117C270A128A11B2000A128A119F
:100FD8007D270A128A11B3000A128A117E270A1283
:100FE8008A11B4000A128A117F270A128A11B500E1
:080FF80083010A128A11802F07
:02400E003A3F37
:00000001FF
