:100000000A128A1112280800FE00030E831203133D
:10001000E5000408E6000A08E7007F08E8000A1285
:100020008A11E82D0A128A11152883120313E90197
:1000300083160313E201E3018317BF308400E3302A
:100040000A128A15F8240A128A1183010A128A11E7
:1000500029280130831203139F0080308316031375
:100060009F0081010B168B178701880183120313F0
:10007000870188018601003083160313AC00AD00B0
:100080000E30AE000030AF000A128A15E3250A12C6
:100090008A11003083160313AC00AD003830AE0077
:1000A0000030AF000A128A15E3250A128A110130C6
:1000B000831203139F00213083160317A9007530A4
:1000C000A800A80B6128A90B6128662883120313D6
:1000D0001F151F196C286D286928831603131E0825
:1000E00083160317A800A9012808B5002908B6003F
:1000F000831203131E0883160317A800A9012808FA
:10010000B7002908B8003808A9003708A80028084F
:10011000A900A80135082804B90036082904BA0046
:10012000AB30940001309500013096003A089800F9
:10013000390897000A128A1510260A128A1100300F
:1001400083160313AC00AD008030AE000030AF006A
:100150000A128A15E3250A128A1183160317BB01B6
:10016000BC01D728013083160313AC000030AD006A
:10017000831603173B08AB3E84000008A800A901C2
:10018000280883160313AE00831603172908831665
:100190000313AF000A128A15E3250A128A110130EF
:1001A00083160317BB070318BC0A0030BC073B08C3
:1001B000AB3E840083170008031DDF28E028B22827
:1001C000043083160317AA00CF30A9000130A8001D
:1001D000A80BE828A90BE828AA0BE8280930831205
:1001E00003139F00213083160317A9007530A80060
:1001F000A80BF828A90BF828FD28831203131F1554
:100200001F19032904290029831603131E088316C6
:100210000317A800A9012808B5002908B600831211
:1002200003131E0883160317A800A9012808B700A6
:100230002908B8003808A9003708A8002808A9002C
:10024000A80135082804B90036082904BA00AB30E3
:10025000940001309500013096003A089800390862
:1002600097000A128A1510260A128A110030831686
:100270000313AC00AD00C030AE000030AF000A1276
:100280008A15E3250A128A1183160317BD01BE01E0
:100290006E29013083160313AC000030AD008316C5
:1002A00003173D08AB3E84000008A800A9012808F8
:1002B00083160313AE00831603172908831603134E
:1002C000AF000A128A15E3250A128A11013083163B
:1002D0000317BD070318BE0A0030BE073D08AB3E3A
:1002E000840083170008031D7629772949290430E3
:1002F00083160317AA00CF30A9000130A800A80B6D
:100300007F29A90B7F29AA0B7F2957280A128A1156
:100310001228831203133D0884008313000884000D
:100320000A128A1500200A128A11253A031D9929FA
:100330009A293F2A3D088400013080078316031361
:10034000E201E301003083120313E900FF3083165A
:100350000317BF00FF30C00083120313C601C62974
:10036000E9143D08840001308007C6290130C60029
:10037000C6293D088400000884000A128A1500205E
:100380000A128A11303A0319B029B629460803190E
:10039000CA29CB29B9293D08F6003E08F7003F08D5
:1003A000F8000A128A111C270A128A11770883168C
:1003B0000313E3007608E200E31FDF29E029EA29BE
:1003C00083120313691483160313E209E309E20A93
:1003D0000319E30A831203133D0884008313000802
:1003E000C700470884000A128A1500200A128A11E1
:1003F000643A0319FC29FD29092A470884000A12D6
:100400008A1500200A128A11693A031D082A092A4E
:10041000372A3E08840083173F1C83130008C0005E
:1004200002308007840A0008C10000300318800AE7
:100430008007400884008317411C83130008C20012
:10044000840A0008C3003D0884004708013E831366
:1004500080003B08AF003C08B0004308B2004208EF
:10046000B1000A128A1159220A128A11582A8312DB
:1004700003133D088400013083138007582A3D0888
:100480008400000884000A128A1500200A128A11CA
:10049000C000C1014008F0004108F1003B08F20033
:1004A0003C08F3000A128A114E250A128A11372AD3
:1004B0000800013083120313B500B21B602A622AC0
:1004C0000130632A0030B8008316031363088312D7
:1004D0000313B70083160313620883120313B600D5
:1004E00038080319742A752A8B2AFF30B6070318B7
:1004F000B70AFF30B7073808031D7F2A802A852AEC
:100500002B30B3000030B400892A2D30B300003006
:10051000B4003308B8001F30B9000030BA008316A9
:100520000317E201D22AFF30B9070318BA0AFF30D5
:10053000BA073908C33E84000A30F0000030F100E9
:100540003208F3003108F2000A128A15FA260A125C
:100550008A117108F7007008F6000A128A15002542
:100560000A128A117608303E831780008312031323
:10057000B501FF30B6070318B70AFF30B7070A30D6
:10058000F0000030F1003208F3003108F2000A12E6
:100590008A11B9260A128A11710883120313B20054
:1005A0007008B100831203133A08803AFF008030CC
:1005B0007F02031DDD2A01303902031CE02AE12AF3
:1005C000012B8312031331083204031DE82AE92AA0
:1005D000932A3508031DED2AEE2A932A3708803A1C
:1005E000FF0080307F02031DF72A01303602031C12
:1005F000FA2AFB2A012B83120313E918002B012B83
:10060000932A8312031338080319072B082B142B82
:10061000FF30B9070318BA0AFF30BA073908C33EDA
:1006200084003808831780002F08A8003008A9002C
:100630003908C33EAA003708AC003608AB000A12DE
:100640008A15A7260A128A1108000130831603139F
:10065000CF00CC1B2C2B2E2B01302F2B0030D200A7
:100660006308D1006208D00052080319382B392BD7
:100670004F2BFF30D0070318D10AFF30D1075208A3
:10068000031D432B442B492B2B30CD000030CE00D3
:100690004D2B2D30CD000030CE004D08D2001F3044
:1006A000D3000030D40083160317E2019A2BFF30E9
:1006B00083160313D3070318D40AFF30D407530853
:1006C000C33E84000A30AC000030AD004C08AF00DF
:1006D0004B08AE000A128A117C270A128A1183166F
:1006E00003132D08B3002C08B2000A128A15112535
:1006F0000A128A11831603133208303E83178000D2
:10070000CF01FF30D0070318D10AFF30D1070A30DC
:10071000AC000030AD004C08AF004B08AE000A1230
:100720008A1154260A128A11831603132D08CC004D
:100730002C08CB0003135408803AFF0080307F025E
:10074000031DA42B01305302031CA72BA82BC82B7D
:10075000831603134B084C04031DAF2BB02B572BF0
:100760004F08031DB42BB52B572B5108803AFF00BF
:1007700080307F02031DBE2B01305002031CC12BB1
:10078000C22BC82B83120313E918C72BC82B572B76
:100790008316031352080319CE2BCF2BDB2BFF300C
:1007A000D3070318D40AFF30D4075308C33E84008C
:1007B0005208831780004908C1004A08C200530844
:1007C000C33EC3005108C5005008C4000A128A1570
:1007D00051270A128A110800831603135708840050
:1007E0008313000884000A128A1500200A128A1155
:1007F000253A031DFC2BFD2B942C57088400013057
:100800008007E201E301003083120313E900FF30A7
:1008100083160317BF00FF30C00083160313DF01E8
:100820002B2C83120313E914831603135708840037
:10083000013080072B2C0130DF002B2C570884005F
:10084000000884000A128A1500200A128A11303A20
:100850000319112C1B2C5F0803192F2C302C1E2C74
:100860005708B2005808B3000A128A15A8270A12BE
:100870008A11831603133308E3003208E200E31FF2
:10088000422C432C4D2C831203136914831603133B
:10089000E209E309E20A0319E30A57088400831313
:1008A0000008E000600884000A128A1500200A127D
:1008B0008A11643A03195D2C5E2C6A2C600884004E
:1008C0000A128A1500200A128A11693A031D692C3E
:1008D0006A2C8C2C5808840083170008FF00023013
:1008E00080077F0884000008DB00840A0008DC0021
:1008F000570884006008013E831380005508C90032
:100900005608CA005C08CC005B08CB000A128A11AA
:1009100025230A128A11AD2C83160313570884006D
:10092000013083138007AD2C570884000008840031
:100930000A128A1500200A128A11D900DA01590810
:10094000AC005A08AD005508AE005608AF000A12B8
:100950008A11AE240A128A118C2C08008316031304
:100960002E082F040319B52CB62CBC2C2E082F04EE
:10097000031DBB2CBC2CC32C2C080A128A1103208B
:100980000A128A114D2D2E08093EB0002F080318B7
:10099000013E003EB100300884008317311C8313F0
:1009A0000008B200840A0008B300320833040319B7
:1009B000DA2CDB2C0D2D2E08093EB0002F08031871
:1009C000013E003EB100300884008317311C8313C0
:1009D0000008B200840A0008B3002E08023EB400EA
:1009E0002F080318013E003EB50034088400831729
:1009F000351C83130008B600840A0008B7003708C6
:100A0000803AB8003308803A3802031D092D3208B5
:100A1000360203180C2D0D2D4D2D831603132E08B1
:100A2000840083172F1C83130008B000840A000879
:100A3000B1002E08023EB2002F080318013E003E0E
:100A4000B300320884008317331C83130008300777
:100A5000B5003108B4000318B40A801F302DB40368
:100A6000831603133408B600350884008317361C38
:100A700083132C0880002E08023EB0002F080318B4
:100A8000013E003EB100300884008317311C8313FF
:100A900001308007840A0318800A08007208730472
:100AA0000319532D542D5A2D72087304031D592D0B
:100AB0005A2D612D70080A128A15F7240A128A111C
:100AC000E72D7208093EF40073080318013E003E4A
:100AD000F500740884008317751C83130008F60062
:100AE000840A0008F700760877040319782D792D19
:100AF000AB2D7208093EF40073080318013E003E56
:100B0000F500740884008317751C83130008F60031
:100B1000840A0008F7007208023EF8007308031800
:100B2000013E003EF900780884008317791C831386
:100B30000008FA00840A0008FB007B08803AFC00E9
:100B40007708803A7C02031DA72D76087A020318E5
:100B5000AA2DAB2DE72D720884008317731C831315
:100B60000008F400840A0008F5007208023EF6004E
:100B700073080318013E003EF700760884008317CF
:100B8000771C831300087407F9007508F800031830
:100B9000F80A801FCC2DF8037808FA007908840041
:100BA00083177A1C8313700880007208023EF400D9
:100BB00073080318013E003EF50074088400831793
:100BC000751C831301308007840A0318800A08000B
:100BD0008B1CEB2DEC2DF72D831603174108013EDE
:100BE000C10042080318013E003EC2008B10A03035
:100BF00083120313CE000030CF000130D0008316E3
:100C00000317420883120313D20083160317410807
:100C100083120313D1000A128A1573260A128A114D
:100C20000030F000F1008930F2000030F3000A12C9
:100C30008A1524250A128A1183160313AA01AB010F
:100C40003E2E0130F0000030F1002A08A03E840062
:100C5000000883120313E300E4016308F200640850
:100C6000F3000A128A1524250A128A11013083160C
:100C70000313AA070318AB0A0030AB072A08A03EEB
:100C8000840083130008031D462E472E212E831255
:100C900003136808FF0067088A0066088400650E71
:100CA0008300FE0E7E0E090083160313B101AD1FF3
:100CB0005A2E5B2E622EAC09AD09AC0A0319AD0A9F
:100CC0000130B100AF1F652E662E6D2EAE09AF0943
:100CD000AE0A0319AF0A0130B106B201B3012C0804
:100CE0002D040319742E752EAA2E0130B000812E0A
:100CF00001300310AC0DAD0DFF3E031D792E013008
:100D0000B007AD1F842E852E782E01300310B20D52
:100D1000B30DFF3E031D862E2D082F02031D922EBC
:100D20002C082E02031C952E962E9D2E2C08AE020A
:100D30002D08031CAF03AF02321401300310AD0CB9
:100D4000AC0CFF3E031D9E2E0130B002031DA92EE8
:100D5000AA2E852E31080319AE2EAF2EB42EB2095D
:100D6000B309B20A0319B30A3308AD003208AC0064
:100D70000800F501F11FBD2EBE2EC52EF009F109A8
:100D8000F00A0319F10A0130F500F31FC82EC92E2D
:100D9000D02EF209F309F20A0319F30A0130F5061D
:100DA000F601F701700871040319D72ED82E0D2F04
:100DB0000130F400E42E01300310F00DF10DFF3E80
:100DC000031DDC2E0130F407F11FE72EE82EDB2E89
:100DD00001300310F60DF70DFF3E031DE92E7108DB
:100DE0007302031DF52E70087202031CF82EF92EF3
:100DF000002F7008F2027108031CF303F30276144B
:100E000001300310F10CF00CFF3E031D012F0130E7
:100E1000F402031D0C2F0D2FE82E75080319112F56
:100E2000122F172FF609F709F60A0319F70A7708A0
:100E3000F1007608F0000800FC01FD01760884004E
:100E40008313000884000A128A1500200A128A11EE
:100E50002A3A031D2C2F2D2F662F7608840001308F
:100E60008007770884008317781C83130008F90033
:100E700002308007840A0008FA0000300318800A54
:100E800080077908840083177A1C83130008FC000C
:100E9000840A0008FD00772F7D08F1007C08F0002F
:100EA0000A30F2000030F3000A128A1547250A12B0
:100EB0008A117B087007FC000030031801307107AD
:100EC000FD007608840001308313800776088400D3
:100ED000000884000A128A1500200A128A11D03EE6
:100EE000FB000A307B02031C762F772F4C2F7D08E6
:100EF000F7007C08F600080083160313B101AF1F4A
:100F0000822F832F8A2FAE09AF09AE0A0319AF0AC9
:100F10000130B100AD1F8D2F8E2F932FAC09AD097D
:100F2000AC0A0319AD0A2C082D040319982F992F28
:100F3000C62F0130B000A52F01300310AC0DAD0D50
:100F4000FF3E031D9D2F0130B007AD1FA82FA92F15
:100F50009C2F2D082F02031DAF2F2C082E02031CDF
:100F6000B22FB32FB92F2C08AE022D08031CAF03EC
:100F7000AF0201300310AD0CAC0CFF3E031DBA2FC5
:100F80000130B002031DC52FC62FA92F3108031948
:100F9000CA2FCB2FD02FAE09AF09AE0A0319AF0A63
:100FA0002F08AD002E08AC00080083160313BF0104
:100FB000C001F22F3E08BC00BD013C08AC003D085A
:100FC000AD003A08AE003B08AF000A128A11AE2409
:100FD0000A128A11013083160313BF070318C00ACF
:100FE0000030C0073F083907BC003C088400831765
:100FF0000008BE003E08031DFE2FFF2FDA2F080059
:1010000008308A000408840A82070034253430340A
:06101000343464340034A6
:1019EE00080064008001840A04060319003404060A
:1019FE00F92CF71B032D042D052D102D7609F8005B
:101A0E007709F900F80A0319F90A7808F600790837
:101A1E00F700080083160313B31B162D172D182D70
:101A2E00232D3209B4003309B500B40A0319B50ADF
:101A3E003408B2003508B30008007018272D2B2D7E
:101A4E008312031308142E2D831203130810720829
:101A5E00870088142130F5007630F400F40B352D14
:101A6E00F50B352D00008312031388102130F5007D
:101A7E007630F400F40B412DF50B412D00000800DB
:101A8E00F401F501701C4C2D4D2D532D7208F407E9
:101A9E000318F50A7308F50701300310F20DF30D64
:101AAE00FF3E031D542D01300310F10CF00CFF3ED0
:101ABE00031D5B2D70087104031D662D672D492DC6
:101ACE007508F1007408F0000800831203134A0829
:101ADE00CD00802D4808BB004908BC004D30BD002C
:101AEE004B08BE004C08BF000A128A1189210A1247
:101AFE008A15831203134D0884000A128A150020DA
:101B0E000A128A15003A031D8D2D8E2D712DC801D6
:101B1E00C901080083160313B001B1012C1C982DC6
:101B2E00992D9F2D2E08B0070318B10A2F08B10763
:101B3E0001300310AE0DAF0DFF3E031DA02D013081
:101B4E000310AD0CAC0CFF3E031DA72D2C082D046D
:101B5E00031DB22DB32D952D3108AD003008AC000C
:101B6E00080083120313A601A701D52D2508A30093
:101B7E00A4012308F0002408F1002108F200220835
:101B8E00F3000A128A114E250A128A1501308312A9
:101B9E000313A6070318A70A0030A7072608200775
:101BAE00A3002308840083170008A5002508031D41
:101BBE00E12DE22DBD2D0800831603132C18E82D00
:101BCE00EC2D831203130814EF2D83120313081048
:101BDE00831603132E0883120313870088142130F3
:101BEE0083160313B1007530B000B00BFC2DB10B92
:101BFE00FC2D012E8312031388102130831603133C
:101C0E00B1007530B000B00B0A2EB10B0A2E0F2E9C
:101C1E0008009730831603179C0014089D001508C2
:101C2E009E009F01A001A601A7019D3090000130EA
:101C3E009100160892009C3093000A128A154026D5
:101C4E000A128A15831603171F0814079A0015081F
:101C5E0099000318990A9F1F352E990383160317AF
:101C6E0019089B001A08840083171B1C831380011C
:101C7E00080083160317120883160313E100602E63
:101C8E0083160317100883160313D5008316031744
:101C9E00110883160313D600E130D70083160317FD
:101CAE00130883160313D8000A128A11EC230A12A2
:101CBE008A1583160313610884000A128A15002000
:101CCE000A128A15003A031D6D2E6E2E472E8316AC
:101CDE000317900191010800513083120313D600AF
:101CEE000030D7004E08D8004F08D900DA01DB01CA
:101CFE00E101E2015830C8000030C9005008CA00A6
:101D0E005630CB000030CC000A128A156C250A1210
:101D1E008A15831203135A084E07D4004F08D300B6
:101D2E000318D30ADA1F9C2ED3038312031353080E
:101D3E00D500540884008317551C831380010800B6
:101D4E0083120313691CAC2EAD2EB82E2A08A000E8
:101D5E002808A1002908A2000A128A15B8250A121D
:101D6E008A1583120313AC1FBD2EBE2EC02EAB01DF
:101D7E00AC01AD01AE01DA2E2030F0000030F100E2
:101D8E00831203132808F2002908F3000A128A119D
:101D9E004E250A128A15013083120313AD0703185C
:101DAE00AE0A0030AE072E08803AFD002C08803AAD
:101DBE007D02031DE42E2B082D02031CE72EE82EB8
:101DCE00C32E831203136918ED2EEE2EF92E2A0858
:101DDE00A0002808A1002908A2000A128A15B82519
:101DEE000A128A150800F501F31FFE2EFF2E062F8C
:101DFE00F209F309F20A0319F30A0130F500F11F93
:101E0E00092F0A2F0F2FF009F109F00A0319F10A11
:101E1E00700871040319142F152F422F0130F4008E
:101E2E00212F01300310F00DF10DFF3E031D192F70
:101E3E000130F407F11F242F252F182F710873027C
:101E4E00031D2B2F70087202031C2E2F2F2F352FE0
:101E5E007008F2027108031CF303F3020130031041
:101E6E00F10CF00CFF3E031D362F0130F402031D62
:101E7E00412F422F252F75080319462F472F4C2F20
:101E8E00F209F309F20A0319F30A7308F100720852
:101E9E00F000080083120313691C562F572F642F6E
:101EAE00831603134308B9004108BA004208BB0069
:101EBE000A128A11D5270A128A1583160313C51F13
:101ECE00692F6A2F6C2FC401C501C701C801862F67
:101EDE00203083160313AC000030AD004108AE0075
:101EEE004208AF000A128A11AE240A128A15013076
:101EFE0083160313C7070318C80A0030C80748081B
:101F0E00803AC6004508803A4602031D902F4408C9
:101F1E004702031C932F942F6F2F831203136918FC
:101F2E00992F9A2FA72F831603134308B900410840
:101F3E00BA004208BB000A128A11D5270A128A1566
:101F4E00080083160313B501B6013208840083130B
:101F5E00000884000A128A1500200A128A152A3AED
:101F6E00031DBA2FBB2FEA2F3208840001308007E1
:101F7E003308840083170008FF00023080077F08B3
:101F8E0084000008B500840A0008B600FB2F36084E
:101F9E00AD003508AC000A30AE000030AF000A12BA
:101FAE008A1591250A128A158316031334082C07F5
:101FBE00B5000030031801302D07B600320884003A
:101FCE0001308313800732088400000884000A124F
:101FDE008A1500200A128A15D03EB4000A30340247
:101FEE00031CFA2FFB2FCE2F3608B3003508B20094
:021FFE000800D9
:02400E003A3F37
:00000001FF
