:100000000A128A11C52F00308A000408840A820768
:0C001000003425343034343464340034BF
:10027C00080064008001840A040603190034040693
:10028C00402948344934473448345F345434453475
:10029C004D3450340034453458345434523445348D
:1002AC004D345F3448344F34543400345634453470
:1002BC00523459345F34543445344D345034003452
:1002CC0043344F344C3444340034F71B6E296F29BB
:1002DC0070297B297609F8007709F900F80A0319C7
:1002EC00F90A7808F6007908F70008007E088A00F9
:1002FC007F0882000A128A117C210A128A1180005E
:10030C00840A04087D0603190034FF0A0319FE0A47
:10031C00802970189229962983120313081499299D
:10032C008312031308107208870088142130F5001B
:10033C007630F400F40BA029F50BA02900008312F1
:10034C00031388102130F5007630F400F40BAC293F
:10035C00F50BAC2900000800831203134908CB00ED
:10036C00C4294708BB004808BC004B30BD004A08F4
:10037C00BE000A128A116C240A128A11831203130A
:10038C004B0884000A128A1103200A128A11003ABF
:10039C00031DD129D229B729C701C80108004E3045
:1003AC0083120313D1004C08D2000030D300D401C7
:1003BC00D501DB01DC015230C7000030C8004D080C
:1003CC00C9005130CA000A128A11B2210A128A11CC
:1003DC008312031354084C07D00050088400831375
:1003EC0080010800F401F501701CFD29FE29042A86
:1003FC007208F4070318F50A7308F50701300310A7
:10040C00F20DF30DFF3E031D052A01300310F10C14
:10041C00F00CFF3E031D0C2A70087104031D172AF3
:10042C00182AFA297508F1007408F0000800FA017E
:10043C00FB013B2A0130F0000030F1007A0876070E
:10044C00F700770884000008F800F9017808F2003A
:10045C007908F3000A128A118F210A128A110130CD
:10046C00FA070318FB0A0030FB077A087607F70037
:10047C007708840083130008031D452A462A202A86
:10048C00080083120313A601A701642A2508A30000
:10049C00A4012308F0002408F1002108F20022082E
:1004AC00F3000A128A11D2230A128A110130831224
:1004BC000313A6070318A70A0030A707260820076E
:1004CC00A3002308840083170008A5002508031D3A
:1004DC00702A712A4C2A0800831203136F1C772A86
:1004EC00782A832A2A08A0002808A1002908A2003B
:1004FC000A128A1147220A128A1183120313AC1FA3
:10050C00882A892A8B2AAB01AC01AD01AE01A52A40
:10051C002030F0000030F100831203132808F200A1
:10052C002908F3000A128A11D2230A128A11013007
:10053C0083120313AD070318AE0A0030AE072E0862
:10054C00803AFD002C08803A7D02031DAF2A2B084F
:10055C002D02031CB22AB32A8E2A831203136F189E
:10056C00B82AB92AC42A2A08A0002808A1002908F8
:10057C00A2000A128A1147220A128A110800F901F4
:10058C00FA01760884008313000884000A128A1189
:10059C0003200A128A112A3A031DD52AD62A022BC5
:1005AC007608840001308007770884000008FF007B
:1005BC00023080077F0884000008F900840A0008D4
:1005CC00FA00132B7A08F1007908F0000A30F200D7
:1005DC000030F3000A128A11F8210A128A117808E5
:1005EC007007F9000030031801307107FA00760823
:1005FC00840001308313800776088400000884008F
:10060C000A128A1103200A128A11D03EF8000A300D
:10061C007802031C122B132BE82A7A08F7007908AE
:10062C00F6000800F501F31F1C2B1D2B242BF209DF
:10063C00F309F20A0319F30A0130F500F11F272B15
:10064C00282B2D2BF009F109F00A0319F10A700877
:10065C0071040319322B332B602B0130F4003F2B28
:10066C0001300310F00DF10DFF3E031D372B01304F
:10067C00F407F11F422B432B362B71087302031D19
:10068C00492B70087202031C4C2B4D2B532B7008FA
:10069C00F2027108031CF303F30201300310F10C96
:1006AC00F00CFF3E031D542B0130F402031D5F2B95
:1006BC00602B432B75080319642B652B6A2BF209ED
:1006CC00F309F20A0319F30A7308F1007208F00037
:1006DC000800F501F11F732B742B7B2BF009F1092A
:1006EC00F00A0319F10A0130F500F31F7E2B7F2B62
:1006FC00862BF209F309F20A0319F30A0130F50605
:10070C00F601F7017008710403198D2B8E2BC32B86
:10071C000130F4009A2B01300310F00DF10DFF3E67
:10072C00031D922B0130F407F11F9D2B9E2B912B57
:10073C0001300310F60DF70DFF3E031D9F2B7108C2
:10074C007302031DAB2B70087202031CAE2BAF2B74
:10075C00B62B7008F2027108031CF303F302761433
:10076C0001300310F10CF00CFF3E031DB72B0130D0
:10077C00F402031DC22BC32B9E2B75080319C72B28
:10078C00C82BCD2BF609F709F60A0319F70A7708D7
:10079C00F1007608F0000800720873040319D72BD7
:1007AC00D82BDE2B72087304031DDD2BDE2BE52BFF
:1007BC0070080A128A113E210A128A116B2C7208D7
:1007CC00093EF40073080318013E003EF50074085E
:1007DC0084008317751C83130008F600840A000834
:1007EC00F700760877040319FC2BFD2B2F2C7208CD
:1007FC00093EF40073080318013E003EF50074082E
:10080C0084008317751C83130008F600840A000803
:10081C00F7007208023EF80073080318013E003E10
:10082C00F900780884008317791C83130008FA00F8
:10083C00840A0008FB007B08803AFC007708803AA9
:10084C007C02031D2B2C76087A0203182E2C2F2CDD
:10085C006B2C720884008317731C83130008F4003C
:10086C00840A0008F5007208023EF60073080318AB
:10087C00013E003EF700760884008317771C831333
:10088C0000087407F9007508F8000318F80A801FAF
:10089C00502CF8037808FA007908840083177A1C26
:1008AC008313700880007208023EF400730803186A
:1008BC00013E003EF500740884008317751C8313F9
:1008CC0001308007840A0318800A0800831203137E
:1008DC003D0884008313000884000A128A11032047
:1008EC000A128A11253A031D7C2C7D2C042D3D08FF
:1008FC00840001308007EB01EC010030EF00FF3089
:10090C00ED00FF30EE00C501A12CEF143D08840072
:10091C0001308007A12C0130C500A12C3D088400BA
:10092C00000884000A128A1103200A128A11303A34
:10093C0003198B2C912C45080319A52CA62C942C4F
:10094C003D08F6003E08F7000A128A11C5220A1269
:10095C008A11770883120313EC007608EB00EC1F66
:10096C00B82CB92CBF2C6F14EB09EC09EB0A03194A
:10097C00EC0A3D08840083130008C6004608840076
:10098C000A128A1103200A128A11643A0319CF2C15
:10099C00D02CDC2C460884000A128A1103200A127F
:1009AC008A11693A031DDB2CDC2CFC2C3E088400DC
:1009BC000008FF00023080077F0884000008C10097
:1009CC00840A0008C2003D0884004608013E8000ED
:1009DC003B08AF003C08B0004208B2004108B1002F
:1009EC000A128A111E250A128A111D2D8312031355
:1009FC003D0884000130831380071D2D3D088400C1
:100A0C00000884000A128A1103200A128A11BF00FE
:100A1C00C0013F08F0004008F1003B08F2003C0820
:100A2C00F3000A128A11D2230A128A11FC2C080034
:100A3C00013083120313B500B21B252D272D013075
:100A4C00282D0030B8006C08B7006B08B6003808C9
:100A5C000319312D322D482DFF30B6070318B70A74
:100A6C00FF30B7073808031D3C2D3D2D422D2B3090
:100A7C00B3000030B400462D2D30B3000030B4006C
:100A8C003308B8001F30B9000030BA0083160317C2
:100A9C00AF018F2DFF30B9070318BA0AFF30BA0720
:100AAC003908903E84000A30F0000030F100320822
:100ABC00F3003108F2000A128A1118230A128A1163
:100ACC007108F7007008F6000A128A116B210A12DD
:100ADC008A117608303E8317800083120313B50108
:100AEC00FF30B6070318B70AFF30B7070A30F0001B
:100AFC000030F1003208F3003108F2000A128A11BA
:100B0C006F230A128A11710883120313B200700842
:100B1C00B100831203133A08803AFF0080307F0241
:100B2C00031D9A2D01303902031C9D2D9E2DBE2DC7
:100B3C008312031331083204031DA52DA62D502D4D
:100B4C003508031DAA2DAB2D502D3708803AFF0018
:100B5C0080307F02031DB42D01303602031CB72DEB
:100B6C00B82DBE2D83120313EF18BD2DBE2D502DA5
:100B7C008312031338080319C42DC52DD12DFF3052
:100B8C00B9070318BA0AFF30BA073908903E840037
:100B9C003808831780002F08A8003008A9003908EE
:100BAC00903EAA003708AC003608AB000A128A1136
:100BBC0072220A128A110800C930840083160313AA
:100BCC00620883138000840A63088000840A640826
:100BDC008000840A65088000840A66088000D8308A
:100BEC008400AB3083120313DD000A30DE00831364
:100BFC000008DF00040AE0005D0884005F08800044
:100C0C00040ADD0060088400DE0BFD2D61308400D9
:100C1C00B530DD000A30DE0083130008DF00040A63
:100C2C00E0005D0884005F088000040ADD006008B5
:100C3C008400DE0B122EB0308400A030DD000B30AF
:100C4C00DE0083170008DF00040AE0005D08840062
:100C5C0083135F088000040ADD0060088400DE0B4B
:100C6C00272E01309F008030831603139F008701CD
:100C7C008801831203138701880186010030F0007C
:100C8C00F1000E30F2000030F3000A128A118F21AD
:100C9C000A128A110030F000F1003830F2000030F6
:100CAC00F3000A128A118F210A128A11831203137C
:100CBC001F151F19622E632E5F2E831603131E0839
:100CCC0083120313DD00DE015D0883160313CE00CF
:100CDC00831203135E0883160313CF0083120313CE
:100CEC001E08DD00DE015D0883160313D00083129D
:100CFC0003135E0883160313D100510883120313E8
:100D0C00DE0083160313500883120313DD005D0805
:100D1C00DE00DD01831603134E08831203135D04FA
:100D2C0083160313D2004F08831203135E04831639
:100D3C000313D3000230F0000030F10052089A3E49
:100D4C00F20053080318013EFF3EF3000A128A1109
:100D5C006F230A128A11710883160313D7007008C7
:100D6C00D600BF3083120313CC000130CD008316A4
:100D7C000313570883120313CF008316031356086B
:100D8C0083120313CE000A128A11D5210A128A117A
:100D9C000030F000F1008030F2000030F3000A1255
:100DAC008A118F210A128A1183160313D401D501DB
:100DBC00FC2E0130F0000030F1005408BF3E8400DE
:100DCC00000883120313DD00DE015D08F2005E08EB
:100DDC00F3000A128A118F210A128A11013083162C
:100DEC000313D4070318D50A0030D5075408BF3EA7
:100DFC00840083130008031D042F052FDF2E5708D2
:100E0C00803AFF0080307F02031D0E2F0130560206
:100E1C000318112F122F262F0030F000F100C030D4
:100E2C00F2000030F3000A128A118F210A128A1183
:100E3C00C930F6000A128A111D220A128A115C2E80
:100E4C0083160313D71B2B2F2C2F3A2F5708803ABE
:100E5C00FF0080307F02031D352F1530560203181A
:100E6C00382F392F3A2F122F831603135708803A35
:100E7C00FF0080307F02031D452F15305602031CE6
:100E8C00482F492F6C2F831603135708803AFF0005
:100E9C0080307F02031D542F293056020318572F20
:100EAC00582F6C2F0030F000F100C030F2000030F1
:100EBC00F3000A128A118F210A128A11B530F6003A
:100ECC000A128A111D220A128A115C2E8316031330
:100EDC005708803AFF0080307F02031D772F29309E
:100EEC005602031C7A2F7B2F9E2F83160313570851
:100EFC00803AFF0080307F02031D862F3D30560262
:100F0C000318892F8A2F9E2F0030F000F100C0307B
:100F1C00F2000030F3000A128A118F210A128A1192
:100F2C00AB30F6000A128A111D220A128A115C2EAD
:100F3C00831603135708803AFF0080307F02031D8D
:100F4C00A92F3D305602031CAC2FAD2FC12F003002
:100F5C00F000F100C030F2000030F3000A128A11E8
:100F6C008F210A128A11A030F6000A128A111D2252
:100F7C000A128A115C2E5C2E0A128A110028831721
:100F8C00BB30FD000130FE005130FF00B03084005A
:100F9C000A128A1180210A128A118313E730FD008C
:100FAC000130FE005C30FF00D83084000A128A1138
:100FBC0080210A128A116B30FD000130FE0047308F
:100FCC00FF00613084000A128A1180210A128A11F2
:100FDC00831790308400B0300A128A113F210A1214
:100FEC008A11EB01EC01ED01EE01EF0183010A1214
:040FFC008A11E22D47
:02400E003A3F37
:00000001FF
