:060000000A128A11FC2F18
:100F0C007018892F8D2F831203130714902F8312BF
:100F1C00031307107208860087142130F500763011
:100F2C00F400F40B972FF50B972F0000831203138B
:100F3C0087102130F5007630F400F40BA32FF50B5D
:100F4C00A32F0000080083160313860187010230CB
:100F5C00831203178D0053308C00831603178C01FA
:100F6C000C1555308D00AA308D008C140C118C187A
:100F7C00C02FC12FBD2F0230831203178D00831693
:100F8C0003178C010C14831203170C08F600F701DD
:100F9C007608F8007708F9000030F000F1000E3008
:100FAC00F2000030F3000A128A1186270A128A1105
:100FBC000130F0000030F1004130F2000030F3005D
:100FCC000A128A1186270A128A110130F0000030A9
:100FDC00F1007908F3007808F2000A128A118627CA
:100FEC000A128A11F82F0A128A11002883010A1298
:040FFC008A11A92F7E
:02400E003B3F36
:00000001FF
