:060000000A128A11122809
:10000800FE00030E83160313A2000408A3000A08C7
:10001800A4007F08A5000A168A11CA2B0A128A11A1
:10002800152883160313D701D801D901DA01DB019A
:10003800DC01DD0183160317E701E801831710309F
:10004800840030300A128A15002083010A128A11AE
:10005800B42C831603171D08840083130008A0001E
:10006800840A0008A100210883120313FF008316E5
:10007800031720088400831203130A168A1100202C
:100088000A128A11253A031D712C831603171D08BD
:100098008400013083138007840A0318800A8316BA
:1000A8000313D701D8010030DD00FF30D900FF303D
:1000B800DA0083160317A4018328831603135D143B
:1000C800831603171D088400013083138007840AF0
:1000D8000318800A832883160313DD146428831603
:1000E80003135D15642883160313DD15642883162E
:1000F80003135D166428013083160317A40024082F
:10010800031DAE281D08840083130008A000840A7C
:100118000008A100210883120313FF0083160317A8
:1001280020088400831203130A168A1100200A1279
:100138008A11203A03197728033A03197B28083AC9
:1001480003197328063A031961281D3A03196F2801
:100158007F288328831603135D1CB428FD30DD0532
:10016800831603171D0883160313B8008316031795
:100178001E0883160313B9000A168A1112250A12DB
:100188008A11831603133908D8003808D700D81FF6
:10019800D3285D14D709D809D70A0319D80A8316B2
:1001A80003171D08840083130008A000840A0008B0
:1001B800A100210883120313FF00831603172008E8
:1001C8008400831203130A168A1100200A128A1166
:1001D8002E3A031D0E29831603171D0884000130CB
:1001E80083138007840A0318800A1D0883160313E3
:1001F800B800831603171E0883160313B9000A16DE
:100208008A1112250A128A11831603133908DA0093
:100218003808D900831603171D08840083130008C3
:10022800A000840A0008A100210883120313FF001C
:100238008316031720088400831203130A168A11F1
:1002480000200A128A11633A031D622983160317D4
:100258001D088400013083138007840A0318800A6C
:100268001E08840083171F1C83130008FF00023038
:1002780080077F08840083170008A5001B088316E1
:100288000313BF00831603171C0883160313C0004B
:1002980083160317250883160313C1000A168A114B
:1002A8002E24831603134008831603179C00831615
:1002B80003133F08831603179B00080083160317D0
:1002C8001D08840083130008AA00840A0008840318
:1002D800AB002B0883120313FF00831603172A08A9
:1002E8008400831203130A168A1100200A128A1145
:1002F80083160317A500A8290130AA070318AB0A1B
:100308000030AB072B0883120313FF008316031773
:100318002A088400831203130A168A1100200A127D
:100328008A11683A031DC829483083160317A500A7
:100338000130AA070318AB0A0030AB07C829693097
:10034800A500C829A501C8292508583A0319A329D1
:100358003C3A0319A3290C3A03198029013A0319D5
:10036800A329073A0319A329013A0319A3291B3A18
:1003780003199C29013A0319A3290D3A0319A32942
:10038800023A03199C29A629831603172B088312FE
:100398000313FF00831603172A088400831203132C
:1003A8000A168A1100200A128A11643A0319162AB9
:1003B800831603172B0883120313FF0083160317F2
:1003C8002A088400831203130A168A1100200A12CD
:1003D8008A11693A0319162A652A042A1E08840014
:1003E80083171F1C83130008FF00023080077F0853
:1003F800840083170008A600A701A61BA703292AC3
:100408001E08840083171F1C83130008FF00023096
:1004180080077F08840083170008A600840A000864
:10042800A700292A831603172508483A0319F22931
:10043800203A0319F129013A0319F1291D3A031940
:10044800042A0E3A0319042A292A0130A000200898
:100458002A07A2002B08A1000318A10AA01BA103C8
:100468002108A3001D0884002208831380002308A4
:10047800840A800084031B0883160313CF008316A5
:1004880003171C0883160313D000831603172708C5
:1004980083160313D2008316031726088316031343
:1004A800D1000A128A110E268316031350088316E8
:1004B80003179C00831603134F08831603179B002A
:1004C8000800831603172B0883120313FF008316F3
:1004D80003172A088400831203130A168A110020BE
:1004E8000A128A11783A0319DC2A831603172B0893
:1004F80083120313FF00831603172A08840083124C
:1005080003130A168A1100200A128A11583A03198D
:10051800DC2A831603172B0883120313FF008316A4
:1005280003172A088400831203130A168A1100206D
:100538000A128A116F3A0319DC2A831603172B084B
:1005480083120313FF00831603172A0884008312FB
:1005580003130A168A1100200A128A11753A031920
:10056800DC2AAE2BCA2A1E08840083171F1C83139B
:100578000008FF00023080077F0884008317000806
:10058800A000A1012008A6002108DA2A1E0884007C
:1005980083171F1C83130008FF00023080077F08A1
:1005A800840083170008A600840A0008A700EF2A21
:1005B800831603172508483A0319B72A203A03195E
:1005C800B62A013A0319B62A1D3A0319CA2A0E3A5D
:1005D8000319CA2AEF2A0130A00020082A07A2001E
:1005E8002B08A1000318A10AA01BA1032108A3003E
:1005F8001D0884002208831380002308840A8000D1
:100608008403922B831603171B0883160313CF004A
:10061800831603171C0883160313D00083160317C9
:10062800270883160313D200831603172608831698
:100638000313D1000A128A112027831603135008C6
:10064800831603179C00831603134F08831603179A
:100658009B000800831603171B0883160313CF009B
:10066800831603171C0883160313D0008316031779
:10067800270883160313D200831603172608831648
:100688000313D1000A168A1143278316031350084F
:10069800831603179C00831603134F08831603174A
:1006A8009B000800831603171B0883160313CF004B
:1006B800831603171C0883160313D0008316031729
:1006C800270883160313D2008316031726088316F8
:1006D8000313D100831603172B0883120313FF009B
:1006E800831603172A088400831203130A168A1133
:1006F80000200A128A1183160313D3000A128A15DE
:100708004523831603135008831603179C0083168A
:1007180003134F08831603179B0008002B08831246
:100728000313FF00831603172A0884008312031398
:100738000A168A1100200A128A11583A0319562BF0
:10074800373A0319062B1A3A03192E2B0D3A0319B7
:10075800562BAE2B831603172B0883120313FF00A7
:10076800831603172A088400831203130A168A11B2
:1007780000200A128A116E3A0319F82B242CDC2B5C
:100788001E08840083171F1C83130008FF00023013
:1007980080077F08840083170008A000840A0008E7
:1007A800A100200884008317211C83136708F62BF7
:1007B8001E08840083171F1C83130008FF000230E3
:1007C80080077F08840083170008A000840A0008B7
:1007D800A100200884008317211C83136708800068
:1007E800840A680880000B2C831603172508483AEA
:1007F8000319C42B203A0319C32B013A0319C32B3D
:100808001D3A0319DC2B0E3A0319DC2B0B2C013093
:10081800A00020082A07A2002B08A1000318A10A9B
:10082800A01BA1032108A3001D088400220883132C
:1008380080002308840A800084039B019C0108002F
:10084800831603171D08840083130008A000840A78
:100858000008A100210883120313FF008316031761
:1008680020088400831203130A168A1100200A1232
:100878008A11253A031D662C831603171D08840068
:10088800013083138007840A0318800A25308316F1
:100898000313B2000030B300831603171B08831636
:1008A8000313B400831603171C0883160313B5003B
:1008B8000A128A1508200130831603179B0000309E
:1008C8009C000800831603171D0884000130831359
:1008D8008007840A0318800A212C831603171D0831
:1008E800840083130008A000840A0008A1002108DE
:1008F80083120313FF008316031720088400831252
:1009080003130A168A1100200A128A118316031784
:10091800A200A301220883160313B200831603174B
:10092800230883160313B300831603171B088316C3
:100938000313B400831603171C0883160313B500AA
:100948000A128A1508200A128A11831603171D082D
:100958008400013083138007840A0318800A5F2CFF
:100968008316031387018312031387018316031366
:10097800880183120313880101309F008030831699
:1009880003139F000B168B1781010030B200B300D0
:100998000E30B4000030B5000A168A15D4270A12A2
:1009A8008A11003083160313B200B3003830B40044
:1009B8000030B5000A168A15D4270A128A110130A8
:1009C800831203139F00213083160317C700753065
:1009D800C600C60BED2CC70BED2CF22C83120313AB
:1009E8001F151F19F52C831603131E0883160317EA
:1009F800C600C7014608DD004708DE00831203135E
:100A08001E0883160317C600C7014608DF004708FB
:100A1800E0006008C7005F08C6004608C700C601B6
:100A28005D084604E1005E084704E200C930B100F1
:100A38000130B2000130B3008030B4006208B60063
:100A48006108B5000A168A1118200A128A110030A6
:100A580083160313B200B3008030B4000030B50031
:100A68000A168A15D4270A128A1183160317E30176
:100A7800E4016308C93E84008317000803196A2D3E
:100A8800013083160313B2000030B3008316031736
:100A98006308C93E84000008C600C70146088316DB
:100AA8000313B40083160317470883160313B5000E
:100AB8000A168A15D4270A128A11013083160317D9
:100AC800E3070318E40A0030E4073D2D04308316D9
:100AD8000317C800CF30C7000130C600C60B722DFF
:100AE800C70B722DC80B722D0930831203139F0098
:100AF800213083160317C7007530C600C60B822D38
:100B0800C70B822D872D831203131F151F198A2DDA
:100B1800831603131E0883160317C600C701460869
:100B2800DD004708DE00831203131E08831603172F
:100B3800C600C7014608DF004708E0006008C70094
:100B48005F08C6004608C700C6015D084604E10004
:100B58005E084704E200D330B1000130B200013032
:100B6800B3008030B4006208B6006108B5000A1608
:100B78008A1118200A128A11003083160313B20052
:100B8800B300C030B4000030B5000A168A15D42767
:100B98000A128A1183160317E501E6016508D33E98
:100BA8008400831700080319FF2D013083160313EF
:100BB800B2000030B300831603176508D33E8400E3
:100BC8000008C600C701460883160313B40083163D
:100BD8000317470883160313B5000A168A15D42786
:100BE8000A128A11013083160317E5070318E60A6B
:100BF8000030E607D22D043083160317C800CF3023
:100C0800C7000130C600C60B072EC70B072EC80B3E
:100C1800072EE32C83160313D21F142E0130152E32
:100C2800003083160317960083160313DA1B1E2E53
:100C3800FD30DD05DA1F272E0130831603179200D9
:100C480000309300312E5A08831603179300831639
:100C580003135908831603179200831603135808C1
:100C68008316031795008316031357088316031773
:100C780094001608031D442E831603135D1D572E7A
:100C8800FF308316031794070318950AFF3095075A
:100C98001608031D512E2B30522E2D309000003097
:100CA80091001008622EDD1D632EFF308316031796
:100CB80094070318950AFF309507203096001F30D7
:100CC8008316031797000030980083120317AF01AB
:100CD800DF2E8316031351085204031D912E831629
:100CE80003171308803AFF0080307F02031D7E2E11
:100CF800013012020318912E831603171508803A43
:100D0800FF0080307F02031D8B2E01301402031C6C
:100D1800EC2E83160313DD1CEC2EFF30831603170D
:100D280097070318980AFF3098071708103E8400A1
:100D38000A3083160313B2000030B3005208B5001E
:100D48005108B4000A168A1117220A128A1183164A
:100D580003133308B9003208B8000A168A15E826C2
:100D68000A128A11831603133808303E831780004D
:100D7800FF308316031792070318930AFF3093076F
:100D8800FF3094070318950AFF3095070A30831639
:100D98000313B2000030B3005208B5005108B40084
:100DA8000A168A11B7220A128A1183160313330806
:100DB800D2003208D100831603171808803AFF00C2
:100DC80080307F02031DEA2E0130170203186D2EB2
:100DD8008316031716080319FD2EFF30970703180B
:100DE800980AFF3098071708103E840016088317E2
:100DF8008000831603134F08C7005008C8008316E5
:100E080003171708103E83160313C9008316031728
:100E1800150883160313CB008316031714088316CB
:100E28000313CA000A168A110E23831603134808EF
:100E3800D0004708CF00080083160313DA1B262FBB
:100E4800FD30DD05DA1F2F2F0130831603179000C0
:100E580000309100392F5A08831603179100831622
:100E680003135908831603179000831603135808B1
:100E78008316031793008316031357088316031763
:100E880092001F3095000030960083120317AF01BF
:100E9800831603179401AA2F8316031351085204CB
:100EA800031D742F831603171108803AFF00803042
:100EB8007F02031D612F013010020318742F83165F
:100EC80003171308803AFF0080307F02031D6E2F3E
:100ED80001301202031CB72F83160313DD1CB72F32
:100EE800FF308316031795070318960AFF309607F5
:100EF80083160313510883160317940007309405CB
:100F08001508103E84001408303E83178000FF3017
:100F180090070318910AFF309107FF3092070318D2
:100F2800930AFF309307831603135208D40051081D
:100F3800D3000310D40CD30C0310D40CD30C03101F
:100F4800D40CD30C5308D1005408D20083160317CD
:100F58001608803AFF0080307F02031DB52F01304C
:100F680015020318502F831603171408031DC22FE8
:100F78008316031359085A04031DD92F03135D1E42
:100F8800D92FFF308316031795070318960AFF30E9
:100F980096071508103E8400303083178000FF3014
:100FA80092070318930AFF30930703134F08C700EB
:100FB8005008C800831603171508103E831603133C
:100FC800C90083160317130883160313CB0083166F
:100FD8000317120883160313CA000A168A110E2370
:100FE800831603134808D0004708CF0008000800FC
:020FF8000800EF
:1010000064008001840A04060319003404060128E0
:1010100083160313340835040319122834083504E1
:10102000031D172832080A128A11FB27080034080A
:10103000093EB60035080318013E003EB7003608E9
:1010400084008317371C83130008B800840A000843
:10105000B9003808390403195D283408093EB60080
:1010600035080318013E003EB70036088400831798
:10107000371C83130008B800840A0008B90034083C
:10108000023EBA0035080318013E003EBB003A0894
:10109000840083173B1C83130008BC00840A0008EB
:1010A000BD003D08803ABE003908803A3E02031D6B
:1010B0005B2838083C020318080083160313340821
:1010C00084008317351C83130008B600840A0008C7
:1010D000B7003408023EB80035080318013E003E50
:1010E000B900380884008317391C831300083607B9
:1010F000BB003708BA000318BA0A801BBA0383166C
:1011000003133A08BC003B08840083173C1C83137C
:10111000320880003408023EB60035080318013E4C
:10112000003EB700360884008317371C8313013054
:101130008007840A0318800A080083160313DA1B49
:10114000A328FD30DD05DA1FAC280130831203131C
:10115000B5000030B600B6285A0883120313B60053
:1011600083160313590883120313B5008316031360
:10117000580883120313B800831603135708831209
:101180000313B7001F30BA000030BB0083120317EF
:10119000AF0183120313B9011F298312031331080E
:1011A0003204031DEF283608803AFF0080307F02AA
:1011B000031DDC28013035020318EF2883120313C6
:1011C0003808803AFF0080307F02031DE928013093
:1011D0003702031C2A2983160313DD1C2A29FF303A
:1011E00083120313BA070318BB0AFF30BB07310889
:1011F000B9000730B9053A08103E84003908303E7E
:1012000083178000FF30B5070318B60AFF30B60712
:10121000FF30B7070318B80AFF30B8073208B40028
:101220003108B3000310B40CB30C0310B40CB30CAE
:101230000310B40CB30C3308B1003408B2003B08FF
:10124000803AFF0080307F02031D282901303A02D6
:101250000318CD28831203133908031D352983167B
:10126000031359085A04031D4D29831603135D1EE9
:101270004D29FF3083120313BA070318BB0AFF304E
:10128000BB073A08103E8400303083178000FF30DF
:10129000B7070318B80AFF30B80783122F08A80051
:1012A0003008A9003A08103EAA003808AC003708F8
:1012B000AB000A168A116A23831203132908B000AF
:1012C0002808AF00080083160313DA1B6929FD30D4
:1012D000DD05DA1F7229013083120313B7000030D5
:1012E000B8007C295A0883120313B800831603132D
:1012F000590883120313B700831603135808831287
:101300000313BA0083160313570883120313B9009B
:101310003108320403198E2901308F290030BB00B7
:10132000831603135D1E9F29831203133B080319C1
:101330009F29FE30B9070318BA0AFF30BA07783080
:10134000831233060319A6294130A7296130B4005E
:101350000030B5003408B6001F30BD000030BE00BC
:1013600083120317AF01E429FF3083120313BD0773
:101370000318BE0AFF30BE073108BC000F30BC05A1
:101380000A303C020318C6293030C8293608F63E18
:10139000BC073D08103E84003C0883178000FF30E6
:1013A000B7070318B80AFF30B807FF30B9070318AA
:1013B000BA0AFF30BA07310E0F39B100320EF039D8
:1013C000B104320E0F39B20003133E08803AFF0019
:1013D00080307F02031DEE2902303D02031C122AD9
:1013E0008312031331083204031DB4293808803AEC
:1013F000FF0080307F02031DFF29013037020318F0
:10140000B429831203133A08803AFF0080307F0228
:10141000031D0C2A01303902031C122A8316031300
:10142000DD18B429831603135D1E3A2A83120313B1
:101430003B0803193A2A8316031359085A0403195F
:101440003A2AFF3083120313BD070318BE0AFF3088
:10145000BE073D08103E8400330883178000FF302C
:10146000BD070318BE0AFF30BE073D08103E8400CA
:101470003030800083122F08A8003008A9003D08F2
:10148000103EAA003A08AC003908AB000A168A11CF
:101490006A23831203132908B0002808AF0008004C
:1014A00083120313B21F562A0130572A0030B900A5
:1014B00083160313DA1B5E2AFD30DD05DA1F672A67
:1014C000013083120313B5000030B600712A5A08A8
:1014D00083120313B60083160313590883120313F0
:1014E000B50083160313580883120313B80083163C
:1014F0000313570883120313B7003908031D842A06
:10150000831603135D1D962AFF308312B707031855
:10151000B80AFF30B8073908031D902A2B30912AEA
:101520002D30B3000030B4003308A12ADD1DA22AFB
:10153000FF3083120313B7070318B80AFF30B80748
:101540002030B9001F308312BA000030BB00831274
:101550000317AF01132B8312031331083204031D49
:10156000CD2A3608803AFF0080307F02031DBA2A58
:10157000013035020318CD2A831203133808803A4C
:10158000FF0080307F02031DC72A01303702031C91
:101590001F2B83160313DD1C1F2BFF308312031335
:1015A000BA070318BB0AFF30BB073A08103E840095
:1015B0000A30F0000030F1003208F3003108F20088
:1015C0000A168A11CE210A128A157108F7007008CE
:1015D000F6000A168A15DA260A128A157608303EAF
:1015E00083178000FF3083120313B5070318B60A70
:1015F000FF30B607FF30B7070318B80AFF30B80747
:101600000A30F0000030F1003208F3003108F20037
:101610000A168A1162220A128A15710883120313AC
:10162000B2007008B10003133B08803AFF0080301D
:101630007F02031D1D2B01303A020318AB2A8312CF
:10164000031339080319302BFF30BA070318BB0AFC
:10165000FF30BB073A08103E84003908831780002A
:101660002F08A8003008A9003A08103EAA00380840
:10167000AC003708AB000A168A116A2383120313E1
:101680002908B0002808AF00080083160313DA1BEE
:101690004B2BFD30DD05DA1F542B01308316031769
:1016A0009300003094005E2B5A08831603179400B1
:1016B0008316031359088316031793008316031325
:1016C00058088316031797008316031357088316C9
:1016D0000317960083160313510852040319722B43
:1016E0000130732B00308316031795008316031304
:1016F0005D1E852B8316031715080319852BFE30F5
:1017000096070318970AFF3097077830031353069C
:1017100003198C2B41308D2B6130831603179100F8
:1017200000309200110890001F30990000309A009C
:1017300083120317AF01D22BFF30831603179907CB
:1017400003189A0AFF309A07831603135108831669
:10175000031798000F3098050A3018020318B22BAF
:101760003030B42B1008F63E98071908103E84005C
:10177000180883178000FF3093070318940AFF307E
:101780009407FF3096070318970AFF3097078316D0
:101790000313510E0F39D100520EF039D104520EFD
:1017A0000F39D200831603171A08803AFF008030E1
:1017B0007F02031DDD2B02301902031C032C83164C
:1017C000031351085204031D9C2B8316031714089E
:1017D000803AFF0080307F02031DF02B013013029E
:1017E00003189C2B831603171708803AFF008030DC
:1017F0007F02031DFD2B01301602031C032C8316F0
:101800000313DD189C2B831603135D1E2F2C8316E8
:101810000317150803192F2C8316031359085A04AC
:1018200003192F2CFF3083160317990703189A0A00
:10183000FF309A071908103E8400831603135308DB
:1018400083178000FF3083160317990703189A0A3D
:10185000FF309A071908103E8400303080000313CF
:101860004F08C7005008C800831603171908103E18
:1018700083160313C900831603171708831603136F
:10188000CB0083160317160883160313CA000A1623
:101890008A110E23831603134808D0004708CF008F
:1018A0000800831203134108840083130008C40056
:1018B000840A0008C5004508FF00440884000A1691
:1018C0008A1100200A128A15253A031DD52F4108D6
:1018D0008400013083138007840A0318800A83166A
:1018E0000313D701D8010030DD00FF30D900FF30ED
:1018F000DA0083120313C8019D2C831603135D14B1
:101900008312031341088400013083138007840A83
:101910000318800A9D2C83160313DD14802C831674
:1019200003135D15802C83160313DD15802C83169D
:1019300003135D16802C0130C8004808031DC22C1B
:101940004108840083130008C400840A0008C5000D
:101950004508FF00440884000A168A1100200A1274
:101960008A15203A0319932C033A0319972C083A45
:1019700003198F2C063A03197D2C1D3A03198B2C61
:101980009B2C9D2C831603135D1CC82CFD30DD059C
:10199000831203134108F6004208F7004308F800D9
:1019A0000A168A119C240A128A15770883160313D3
:1019B000D8007608D700D81FE32C5D14D709D809C2
:1019C000D70A0319D80A831203134108840083132A
:1019D0000008C400840A0008C5004508FF00440848
:1019E00084000A168A1100200A128A152E3A031D55
:1019F000122D41088400013083138007840A0318E4
:101A0000800A4108F6004208F7004308F8000A1669
:101A10008A119C240A128A15770883160313DA00A8
:101A20007608D90083124108840083130008C4009B
:101A3000840A0008C5004508FF00440884000A160F
:101A40008A1100200A128A15633A031D562D410897
:101A50008400013083138007840A0318800A420837
:101A600084008317431C83130008C40002308007DE
:101A7000840A0008C50000300318800A8007440863
:101A800084008317451C83130008CD003F08A00085
:101A90004008A1004D08A2000A168A118E25831263
:101AA00003132108C0002008BF000800410884007B
:101AB00083130008CE00840A00088403CF004F0877
:101AC000FF004E0884000A168A1100200A128A15A7
:101AD000CD008A2D0130CE070318CF0A0030CF0782
:101AE0004F08FF004E0884000A168A1100200A12CF
:101AF0008A15683A031DAA2D4830CD000130CE0763
:101B00000318CF0A0030CF07AA2D6930CD00AA2DC7
:101B1000CD01AA2D4D08583A0319852D3C3A0319D9
:101B2000852D0C3A03196A2D013A0319852D073AC0
:101B30000319852D013A0319852D1B3A03197E2DB2
:101B4000013A0319852D0D3A0319852D023A03191F
:101B50007E2D882D4F08FF004E0884000A168A113A
:101B600000200A128A15643A0319FA2D4F08FF0063
:101B70004E0884000A168A1100200A128A15693A52
:101B80000319FA2D332EDF2D420884008317431CDE
:101B900083130008C40002308007840A0008C500CF
:101BA00000300318800A8007440884008317451C0E
:101BB00083130008C900CA01C91BCA030B2E4208BF
:101BC00084008317431C83130008C400023080077D
:101BD000840A0008C50000300318800A8007440802
:101BE00084008317451C83130008C900840A000879
:101BF000CA000B2E4D08483A0319C42D203A031988
:101C0000C32D013A0319C32D1D3A0319DF2D0E3AD6
:101C10000319DF2D0B2E0130C40044084E07C60007
:101C20004F08C5000318C50AC41BC5034508C700F3
:101C3000410884004608831380004708840A800016
:101C400084033F08AF004008B0004A08B2004908CA
:101C5000B1000A128A155022831203133008C00003
:101C60002F08BF0008004F08FF004E0884000A1626
:101C70008A1100200A128A15783A03199C2E4F08FF
:101C8000FF004E0884000A168A1100200A128A15E5
:101C9000583A03199C2E4F08FF004E0884000A167C
:101CA0008A1100200A128A156F3A03199C2E4F08D8
:101CB000FF004E0884000A168A1100200A128A15B5
:101CC000753A03199C2E1A2F812E4208840083171F
:101CD000431C83130008C40002308007840A0008F4
:101CE000C50000300318800A800744088400831769
:101CF000451C83130008C600C7014608C9004708F1
:101D00009A2E420884008317431C83130008C400E2
:101D100002308007840A0008C50000300318800ADA
:101D20008007440884008317451C83130008C900FA
:101D3000840A0008CA00AD2E4D08483A0319652EE2
:101D4000203A0319642E013A0319642E1D3A03192F
:101D5000812E0E3A0319812EAD2E0130C4004408A5
:101D60004E07C6004F08C5000318C50AC41BC503AB
:101D70004508C700410884004608831380004708CF
:101D8000840A80008403042F3F08AF004008B0009D
:101D90004A08B2004908B1000A128A159D20831230
:101DA00003133008C0002F08BF0008003F08AF0031
:101DB0004008B0004A08B2004908B1000A168A116A
:101DC0009D26831203133008C0002F08BF000800AF
:101DD0003F08AF004008B0004A08B2004908B1000F
:101DE0004F08FF004E0884000A168A1100200A12CC
:101DF0008A15B3000A128A1563218312031330086F
:101E0000C0002F08BF0008004F08FF004E088400E4
:101E10000A168A1100200A128A15583A0319E82E68
:101E2000373A0319C42E1A3A0319D62E0D3A03195C
:101E3000E82E1A2F4F08FF004E0884000A168A1158
:101E400000200A128A156E3A0319722F9E2F4B2F0B
:101E5000420884008317431C83130008C400023027
:101E60008007840A0008C50000300318800A800734
:101E7000440884008317451C83130008C600840AA5
:101E80000008C700460884008317471C8313831685
:101E900003176708702F420884008317431C8313BD
:101EA0000008C40002308007840A0008C500003022
:101EB0000318800A8007440884008317451C831395
:101EC0000008C600840A0008C7004608840083177B
:101ED000471C83138316031767088000840A680869
:101EE0008000832F4D08483A0319282F203A031900
:101EF000272F013A0319272F1D3A03194B2F0E3AAA
:101F000003194B2F832F013083120313C40044089D
:101F10004E07C6004F08C5000318C50AC41BC503F9
:101F20004508C7004108840046088313800047081D
:101F3000840A80008403BF01C001080041088400B6
:101F400083130008C400840A0008C5004508FF0088
:101F5000440884000A168A1100200A128A15253ABC
:101F6000031DCC2F41088400013083138007840AAD
:101F70000318800A2530F0000030F1003F08F2001D
:101F80004008F3000A168A110E260130831203134B
:101F9000BF000030C00008004108840001308313F6
:101FA0008007840A0318800A9B2F4108840083134A
:101FB0000008C400840A0008C5004508FF00440862
:101FC00084000A168A1100200A128A15C600C70169
:101FD0004608F0004708F1003F08F2004008F3000F
:101FE0000A168A110E260A128A1583120313410853
:101FF0008400013083138007840A0318800AC52FE8
:10200000FF1B0A2883137F1883170008840A03190B
:10201000FF0A080010308A000408840A820700348E
:0A20200025343034343464340034C5
:10203000B53083160317C5003108BA003208BB005B
:10204000BC01BD01C301C401BA30AC000130AD0018
:102050003308AE003408AF00C530B0000A168A114C
:102060008B21831603173C083107B8003208B700EC
:102070000318B70ABC1BB703831603173708B90048
:10208000380884008317391C831380010800700806
:102090007104031972280130F400F11B5928013032
:1020A0000310F00DF10DFF3E031D50280130F40721
:1020B0004D2871087302031D5F2870087202031C0B
:1020C00067287008F2027108031CF303F302013061
:1020D0000310F10CF00CFF3E031D68280130F402E0
:1020E000031D59287308F1007208F00008008316D8
:1020F0000313320833040319A4280130B600B31BBC
:102100008B2801300310B20DB30DFF3E031D822852
:102110000130B6077F2833083502031D91283208A5
:102120003402031C99283208B4023308031CB50397
:10213000B50201300310B30CB20CFF3E031D9A2808
:102140000130B602031D8B283508B3003408B200F5
:1021500008005C3083120313EC000030ED005808D7
:10216000E1005908E200E301E401EA01EB0161301A
:10217000D0000030D1005A08D2005B08D3006C3088
:10218000D4000030D5000A168A11DC208312031314
:1021900063085807DF005908DE000318DE0AE31B56
:1021A000DE03831203135E08E0005F0884008317D8
:1021B000601C831380010800831203135208D600A9
:1021C0005308D70083160317E701E80183120313AE
:1021D0005708FF00560884000A168A1100200A16C4
:1021E0008A11003A031912295008BF005108C00093
:1021F0005630C1005408C2005508C3000A128A159F
:1022000051240A168A11831203133F0883160317F9
:10221000E7070318E80A831203134008831603171D
:10222000E807E628D001D1010800F401F5017008A3
:10223000710403194A290130F600F11B29290130E4
:102240000310F00DF10DFF3E031D20290130F607AC
:102250001D2901300310F40DF50DFF3E031D2A2941
:1022600071087302031D362970087202031C3F298E
:102270007008F2027108031CF303F30274140130B6
:102280000310F10CF00CFF3E031D40290130F60253
:10229000031D29297508F1007408F0000800831651
:1022A0000313B701B801320833040319862901303A
:1022B000B600B31B652901300310B20DB30DFF3E0C
:1022C000031D5C290130B607592901300310B70DF1
:1022D000B80DFF3E031D662933083502031D722920
:1022E00032083402031C7B293208B4023308031C71
:1022F000B503B502371401300310B30CB20CFF3E26
:10230000031D7C290130B602031D65293808B3007E
:102310003708B2000800831603172E08831603132C
:10232000D500831603172F0883160313D6008316D0
:102330000317E701E80183160313560883120313FA
:10234000FF008316031355088400831203130A1633
:102350008A1100200A168A11003A0319C929831626
:1023600003172C089B002D089C00D5309D003008D9
:102370009E0001309F000A128A112D200A168A1130
:10238000831603171B08E7070318E80A1C08E80769
:102390009B2983160317AC01AD010800F501F31F5B
:1023A000D829F209F309F20A0319F30A0130F500FA
:1023B000F11FDF29F009F109F00A0319F10A700889
:1023C000710403190A2A0130F400F11BF1290130CC
:1023D0000310F00DF10DFF3E031DE8290130F40755
:1023E000E52971087302031DF72970087202031CA6
:1023F000FF297008F2027108031CF303F302013095
:102400000310F10CF00CFF3E031D002A0130F40212
:10241000031DF12975080319122AF209F309F20ABA
:102420000319F30A7308F1007208F000080083161C
:102430000313B701B51F232AB409B509B40A031958
:10244000B50A0130B700B31F2A2AB209B309B20A8C
:102450000319B30A320833040319552A0130B600B0
:10246000B31B3C2A01300310B20DB30DFF3E031D18
:10247000332A0130B607302A33083502031D422AB9
:1024800032083402031C4A2A3208B4023308031CFF
:10249000B503B50201300310B30CB20CFF3E031DAF
:1024A0004B2A0130B602031D3C2A370803195D2A66
:1024B000B409B509B40A0319B50A3508B3003408DC
:1024C000B2000800F501F11F6C2AF009F109F00AC9
:1024D0000319F10A0130F500F31F752AF209F30917
:1024E000F20A0319F30A0130F506F601F701700844
:1024F00071040319AA2A0130F400F11B892A013062
:102500000310F00DF10DFF3E031D802A0130F4078A
:102510007D2A01300310F60DF70DFF3E031D8A2AB8
:1025200071087302031D962A70087202031C9F2A09
:102530007008F2027108031CF303F30276140130F1
:102540000310F10CF00CFF3E031DA02A0130F40231
:10255000031D892A75080319B22AF609F709F60A34
:102560000319F70A7708F1007608F00008008316CF
:102570000313B701B31FC32AB209B309B20A03197F
:10258000B30A0130B700B51FCC2AB409B509B40AA3
:102590000319B50A0130B706B801B901320833048E
:1025A0000319012B0130B600B31BE02A01300310E0
:1025B000B20DB30DFF3E031DD72A0130B607D42A52
:1025C00001300310B80DB90DFF3E031DE12A330899
:1025D0003502031DED2A32083402031CF62A3208A4
:1025E000B4023308031CB503B502381401300310DC
:1025F000B30CB20CFF3E031DF72A0130B602031DD7
:10260000E02A37080319092BB809B909B80A0319D0
:10261000B90A3908B3003808B2000800831603135A
:102620005D1C1D2B4908BF004708C0004808C100B9
:102630000A168A15AC270A168A1183160313CB1FB4
:10264000232BCA01CB01CD01CE014E08803ACC002C
:102650004B08803A4C02031D2F2B4A084D020318E9
:10266000492B203083160313B2000030B300470813
:10267000B4004808B5000A128A1508200A168A1103
:10268000013083160313CD070318CE0A0030CE079E
:10269000252B831603135D18582B4908BF004708E4
:1026A000C0004808C1000A168A15AC270A168A110C
:1026B000831603134908B2000A168A150A278316DF
:1026C00003134A083207C7004B0803184B0A3307A5
:1026D000C8000800831603135D1C7B2B83120313B1
:1026E0002A08A0002808A1002908A2000A168A15B5
:1026F00084270A168A1183120313AC1F812BAB01A6
:10270000AC01AD01AE012E08803AFD002C08803AE4
:102710007D02031D8D2B2B082D020318A72B2030C3
:10272000F0000030F100831203132808F20029089A
:10273000F3000A168A110E260A168A110130831236
:102740000313AD070318AE0A0030AE07832B8316C0
:1027500003135D18B82B831203132A08A00028085E
:10276000A1002908A2000A168A1584270A168A11D0
:10277000831203132A08F0000A168A15F82683121A
:1027800003132B087007A8002C0803182C0A7107E4
:10279000A90008008B1C232C5B08013EDB005C08B1
:1027A0000318013E003EDC00A63083120313D8005C
:1027B0000030D9006430DA00B430DB008316031334
:1027C0005C0883120313DD00831603135B08831276
:1027D0000313DC000A168A11A9200A168A11003098
:1027E000F000F100C930F2000030F3000A168A153B
:1027F0003F270A168A1183160313B001B10130086E
:10280000A63E8400831300080319222C0130F00037
:102810000030F1003008A63E84000008A000A101AD
:102820002008F2002108F3000A168A153F270A162D
:102830008A11013083160313B0070318B10A003060
:10284000B107FF2B8B102508FF0024088A002308FE
:102850008400220E8300FE0E7E0E090083160313F1
:1028600057085804031D392C5808C7005708C600DC
:10287000412C5708FF3EC60058080318013EFF3E92
:10288000C7005D1C532C4108C200C3014208B200BE
:102890004308B3003F08B4004008B5000A128A1587
:1028A00008200A168A1183160313C71F592CC60164
:1028B000C701C401C5014508803AC2004708803AF3
:1028C0004202031D652C4608440203187F2C203069
:1028D00083160313B2000030B3003F08B400400871
:1028E000B5000A128A1508200A168A1101308316CB
:1028F0000313C4070318C50A0030C5075B2C8316F1
:1029000003135D18912C4108C200C3014208B200B4
:102910004308B3003F08B4004008B5000A128A1506
:102920000820831603134408013EBF00450803181E
:10293000013E003EC0000800FC01FD017608840055
:1029400083130008F900840A0008FA007A08831249
:102950000313FF00790884000A168A1100200A1662
:102960008A112A3A031DF42C76088400013083135F
:102970008007840A0318800A770884008317781C6C
:1029800083130008F90002308007840A0008FA0067
:1029900000300318800A80077908840083177A1CA6
:1029A00083130008FC00840A0008FD000D2D7D083B
:1029B000F1007C08F0000A30F2000030F3000A1643
:1029C0008A151E270A168A117B087007FC00003042
:1029D000031801307107FD0076088400013083136D
:1029E0008007840A0318800A76088400831300088D
:1029F000F900840A0008FA007A0883120313FF0022
:102A0000790884000A168A1100200A168A11D03E1D
:102A1000FB000A307B02031CD72C7D08F7007C08E2
:102A2000F600080083160313BD01BE0138088400B8
:102A300083130008BA00840A0008BB003B08831215
:102A40000313FF00831603133A0884008312031351
:102A50000A168A1100200A168A112A3A031D682DC7
:102A60008316031338088400013083138007840A17
:102A70000318800A3908840083170008FF00023019
:102A800080077F0884000008BD00840A0008BE009B
:102A9000892D3E08B3003D08B2000A30B400003072
:102AA000B5000A168A1561270A168A1183160313C0
:102AB0003C083207BD000030031801303307BE0068
:102AC00038088400013083138007840A0318800AC1
:102AD000831603133808840083130008BA00840A9D
:102AE0000008BB003B0883120313FF008316031387
:102AF0003A088400831203130A168A1100200A166A
:102B00008A11D03E83160313BC000A303C02031C1A
:102B1000492D3E08B9003D08B8000800831603138C
:102B200057085804031D9F2D580883120313A8004B
:102B300083160313570883120313A700AD2D5708FC
:102B4000FF3E83120313A7008316031358080318CC
:102B5000013EFF3E83120313A800831603135D1C7E
:102B6000C32D831203132208A300A4012308F0003D
:102B70002408F1002008F2002108F3000A168A1147
:102B80000E260A168A1183120313A81FC92DA70146
:102B9000A801A501A6012608803AA3002808803ACA
:102BA0002302031DD52D270825020318EF2D203001
:102BB000F0000030F100831203132008F200210816
:102BC000F3000A168A110E260A168A1101308312A2
:102BD0000313A5070318A60A0030A607CB2D8316FA
:102BE00003135D18032E831203132208A300A4010C
:102BF0002308F0002408F1002008F2002108F30067
:102C00000A168A110E26831203132508013EA0001E
:102C100026080318013E003EA10008007208730454
:102C20000319162E72087304031D1B2E70080A1256
:102C30008A11FC2708007208093EF4007308031883
:102C4000013E003EF500740884008317751C831351
:102C50000008F600840A0008F700760877040319D4
:102C6000612E7208093EF40073080318013E003E0D
:102C7000F500740884008317751C83130008F600A0
:102C8000840A0008F7007208023EF800730803186F
:102C9000013E003EF900780884008317791C8313F5
:102CA0000008FA00840A0008FB007B08803AFC0058
:102CB0007708803A7C02031D5F2E76087A0203189B
:102CC0000800720884008317731C83130008F40043
:102CD000840A0008F5007208023EF6007308031823
:102CE000013E003EF700760884008317771C8313AB
:102CF00000087407F9007508F8000318F80A801B2B
:102D0000F8037808FA007908840083177A1C831383
:102D1000700880007208023EF40073080318013E38
:102D2000003EF500740884008317751C831301307E
:102D30008007840A0318800A080083160313DA1B2D
:102D4000A32EFD30DD05DA1FAC2E013083120313F4
:102D5000B3000030B400B62E5A0883120313B40037
:102D600083160313590883120313B3008316031346
:102D7000580883120313B6008316031357088312EF
:102D80000313B5001F30B7000030B80083120317DB
:102D9000AF01272F31083204031DEA2E3408803A90
:102DA000FF0080307F02031DD72E0130330203184D
:102DB000EA2E831203133608803AFF0080307F0228
:102DC000031DE42E01303502031C2C2F8316031340
:102DD000DD1C2C2FFF3083120313B7070318B80A2A
:102DE000FF30B8073708103E84000A30F00000308A
:102DF000F1003208F3003108F2000A168A11472068
:102E00000A168A117008303E83178000FF30831243
:102E10000313B3070318B40AFF30B407FF30B50734
:102E20000318B60AFF30B6070A30F0000030F10090
:102E30003208F3003108F2000A168A1115210A1629
:102E40008A11710883120313B2007008B1000313D2
:102E500037083804031DCA2E831203132F08A80055
:102E60003008A9003708103EAA003608AC00350823
:102E7000AB000A168A116A23831203132908B000D3
:102E80002808AF00080083160313DA1B492FFD3012
:102E9000DD05DA1F522F0130831603179000003032
:102EA00091005C2F5A0883160317910083160313B1
:102EB00059088316031790008316031358088316C6
:102EC0000317930083160313570883160317920002
:102ED0001F3094000030950083120317AF01D72FE5
:102EE0008316031351085204031D942F83160317EE
:102EF0001108803AFF0080307F02031D812F0130CE
:102F000010020318942F831603171308803AFF004A
:102F100080307F02031D8E2F01301202031CDD2F33
:102F200083160313DD1CDD2FFF3083160317940770
:102F30000318950AFF3095071408103E84000A30E4
:102F400083160313B2000030B3005208B5005108D5
:102F5000B4000A168A1177200A168A118316031301
:102F60003208303E83178000FF3083160317900726
:102F70000318910AFF309107FF3092070318930A54
:102F8000FF3093070A3083160313B2000030B300FA
:102F90005208B5005108B4000A168A114F210A16CA
:102FA0008A11831603133308D2003208D100831626
:102FB000031714081504031D702F831603134F08FD
:102FC000C7005008C800831603171408103E831664
:102FD0000313C90083160317130883160313CB00CA
:102FE00083160317120883160313CA000A168A11E0
:102FF0000E23831603134808D0004708CF000800AB
:103DB400F71F08007609F8007709F900F80A0319D3
:103DC400F90A7808F6007908F70008008316031347
:103DD400B91F08003809BA003909BB00BA0A031927
:103DE400BB0A3A08B8003B08B90008007008F200A2
:103DF40070088400831700080319032F0130F007AB
:103E0400FA2E72087002F000F101F01BF1030800B1
:103E1400831603133208B4003208840083170008A1
:103E24000319172F0130B2070E2F34083202B200E3
:103E3400B301B21BB3030800F401F501701C282F71
:103E44007208F4070318F50A7308F5070130031024
:103E5400F20DF30DFF3E031D292F01300310F10C69
:103E6400F00CFF3E031D302F70087104031D202F3A
:103E74007508F1007408F0000800701C452F8312C7
:103E840003130814482F83120313081072088700C1
:103E940088142130F5007630F400F40B4F2FF50B25
:103EA4004F2F00008312031388102130F500763061
:103EB400F400F40B5B2FF50B5B2F00000800831656
:103EC4000313B601B701321C6D2F3408B60703186B
:103ED400B70A3508B70701300310B40DB50DFF3E1E
:103EE400031D6E2F01300310B30CB20CFF3E031DF3
:103EF400752F32083304031D652F3708B3003608C5
:103F0400B200080083120313A601A70126082007A4
:103F1400A3002308840083170008A50025080319BB
:103F240008002508A300A4012308F0002408F100D8
:103F34002108F2002208F3000A168A110E260A1636
:103F44008A15013083120313A6070318A70A003049
:103F5400A707882F83160313C501C60145083F0729
:103F6400C2004208840083170008C40044080319EF
:103F740008004408C200C3014208B2004308B30069
:103F84004008B4004108B5000A128A1508200A1630
:103F94008A15013083160313C5070318C60A0030B7
:103FA400C607B02F83160313321CDC2F83120313AE
:103FB4000814DF2F83120313081083160313340825
:103FC4008312031387008814213083160313B70068
:103FD4007530B600B60BEC2FB70BEC2FF12F831214
:103FE40003138810213083160313B7007530B6000D
:0C3FF400B60BFA2FB70BFA2FFF2F0800B6
:02400E003A3F37
:00000001FF
