:060000000A128A110C280F
:10000800FE00030EF0000A08F1000A128A11092EF8
:100018000A128A110F2883120313E401E501E6018D
:10002800E701E8018313A0308400C2300A128A1164
:100038003F260A128A1183010A128A1123280130E5
:10004800831203139F008030831603139F008701D8
:10005800880183120313870188018601831603131D
:1000680081010B168B170030F200F3000C30F400FE
:100078000030F5000A128A11E6250A128A110030AA
:10008800F200F3003830F4000030F5000A128A114B
:10009800E6250A128A110130831203139F002130CA
:1000A80083120313E2007530E100E10B5928E20BDB
:1000B80059285E28831203131F151F196428652801
:1000C8006128831603131E0883120313E100E2015B
:1000D800610883160313CC00831203136208831686
:1000E8000313CD00831203131E08E100E201610827
:1000F80083160313CE0083120313620883160313B7
:10010800CF004F0883120313E200831603134E082F
:1001180083120313E1006108E200E101831603136F
:100128004C0883120313610483160313D0004D088F
:1001380083120313620483160313D100C23083129F
:100148000313D0000130D100831603135108831222
:100158000313D30083160313500883120313D2002A
:100168000A128A11A0250A128A110030F200F3003F
:100178008030F4000030F5000A128A11E6250A12D0
:100188008A1183160313D201D301E7280130F20044
:100198000030F3005208C23E8400000883120313A3
:1001A800E100E2016108F4006208F5000A128A1110
:1001B800E6250A128A11013083160313D2070318A1
:1001C800D30A0030D3075208C23E840083130008C4
:1001D800031DEF28F028CA28043083120313E30014
:1001E800CF30E2000130E100E10BF828E20BF828FB
:1001F800E30BF8280930831203139F002130831280
:100208000313E2007530E100E10B0829E20B08292D
:100218000D29831203131F151F19132914291029D7
:10022800831603131E0883120313E100E201610819
:1002380083160313CC008312031362088316031377
:10024800CD00831203131E08E100E2016108831642
:100258000313CE0083120313620883160313CF001F
:100268004F0883120313E200831603134E08831208
:100278000313E1006108E200E101831603134C084F
:1002880083120313610483160313D0004D088312ED
:100298000313620483160313D100C23083120313BD
:1002A800D0000130D10083160313510883120313C1
:1002B800D30083160313500883120313D2000A12C3
:1002C8008A11A0250A128A110030F200F300C0300A
:1002D800F4000030F5000A128A11E6250A128A1184
:1002E800C230F8000A128A1122250A128A11C23075
:1002F80083120313D0000630D1008316031321089C
:1003080083120313D30083160313200883120313E5
:10031800D2000A128A11A0250A128A110030F200AE
:10032800F300CD30F4000030F5000A128A11E625FA
:100338000A128A11C230F8000A128A1122250A12FA
:100348008A114F280A128A110C28013083120313CC
:10035800B900B61BB029B2290130B3290030BC005E
:100368006508BB006408BA003C080319BC29BD290C
:10037800D329FF30BA070318BB0AFF30BB073C0874
:10038800031DC729C829CD292B30B7000030B80074
:10039800D1292D30B7000030B8003708BC001F3015
:1003A800BD000030BE0083160313C1011A2AFF30B6
:1003B800BD070318BE0AFF30BE073D08A23E8400F1
:1003C8000A30F2000030F3003608F5003508F40072
:1003D8000A128A1178240A128A117308F90072081D
:1003E800F8000A128A111F260A128A117808303E6C
:1003F8008313800083120313B901FF30BA0703186F
:10040800BB0AFF30BB070A30F2000030F3003608A1
:10041800F5003508F4000A128A11BE230A128A115F
:10042800730883120313B6007208B50083123E08DE
:10043800803AFF0080307F02031D242A01303D02EC
:10044800031C272A282A482A83120313350836044E
:10045800031D2F2A302ADB293908031D342A352A9F
:10046800DB293B08803AFF0080307F02031D3E2ACB
:1004780001303A02031C412A422A482A83120313F4
:10048800E818472A482ADB29831203133C08031972
:100498004E2A4F2A5B2AFF30BD070318BE0AFF30D9
:1004A800BE073D08A23E84003C0883138000330841
:1004B800AC003408AD003D08A23EAE003B08B000D9
:1004C8003A08AF000A128A11CF240A128A110800CA
:1004D80083120313410884008313000884000A125E
:1004E8008A1130260A128A11253A031D7C2A7D2A90
:1004F800042B4108840001308007E401E501003045
:10050800E800FF30E600FF30E700C901A12AE8143F
:100518004108840001308007A12A0130C900A12ABE
:1005280041088400000884000A128A1130260A1241
:100538008A11303A03198B2A912A49080319A52AE6
:10054800A62A942A4108F8004208F9000A128A11DA
:1005580021240A128A11790883120313E500780806
:10056800E400E51FB82AB92ABF2A6814E409E50996
:10057800E40A0319E50A4108840083130008CA0045
:100588004A0884000A128A1130260A128A11643A2B
:100598000319CF2AD02ADC2A4A0884000A128A11B1
:1005A80030260A128A11693A031DDB2ADC2AFC2A42
:1005B800420884000008FF00023080077F0884009A
:1005C8000008C500840A0008C600410884004A08DB
:1005D800013E80003F08B3004008B4004608B6005A
:1005E8004508B5000A128A11A9210A128A111D2B81
:1005F80083120313410884000130831380071D2BE5
:1006080041088400000884000A128A1130260A1260
:100618008A11C300C4014308F2004408F3003F08EC
:10062800F4004008F5000A128A111E230A128A11E2
:10063800FC2A0800740875040319232B242B2A2B81
:1006480074087504031D292B2A2B312B72080A12F2
:100658008A1147260A128A11BD2B7408093E831293
:100668000313A00075080318013E003EA1002008EE
:1006780084008317211C83130008A200840A000841
:10068800A3002208230403194A2B4B2B7D2B740843
:10069800093EA00075080318013E003EA10020088D
:1006A80084008317211C83130008A200840A000811
:1006B800A3007408023EA40075080318013E003E1A
:1006C800A500240884008317251C83130008A600AE
:1006D800840A0008A7002708803AA8002308803A5F
:1006E8002802031D792B2208260203187C2B7D2B58
:1006F800BD2B740884008317751C831300088312AC
:100708000313A000840A0008A1007408023EA20096
:1007180075080318013E003EA300220884008317D1
:10072800231C831300082007A5002108A400031830
:10073800A40A801FA02BA403831203132408A60075
:10074800250884008317261C831372088000740808
:10075800023EA00075080318013E003EA1002008D3
:1007680084008317211C831301308007840A03182F
:10077800800A0800F701F31FC22BC32BCA2BF2090A
:10078800F309F20A0319F30A0130F700F51FCD2B1C
:10079800CE2BD52BF409F509F40A0319F50A013013
:1007A800F706F801F901720873040319DC2BDD2B35
:1007B800122C0130F600E92B01300310F20DF30D75
:1007C800FF3E031DE12B0130F607F31FEC2BED2B49
:1007D800E02B01300310F80DF90DFF3E031DEE2B41
:1007E80073087502031DFA2B72087402031CFD2B93
:1007F800FE2B052C7208F4027308031CF503F5029E
:10080800781401300310F30CF20CFF3E031D062C84
:100818000130F602031D112C122CED2B7708031959
:10082800162C172C1C2CF809F909F80A0319F90ACF
:100838007908F3007808F200080083120313A10175
:10084800A201780884008313000884000A128A1120
:1008580030260A128A112A3A031D332C342C622CB2
:100868007808840001308007790884000008FF00B8
:10087800023080077F0884000008A100840A00086D
:10088800A200732C2208F3002108F2000A30F400B9
:100898000030F5000A128A117B250A128A11831288
:1008A800031320087207A1000030031801307307F2
:1008B800A200780884000130831380077808840038
:1008C800000884000A128A1130260A128A11D03EC2
:1008D800A0000A302002031C722C732C462C22081C
:1008E800F9002108F8000800F701F51F7C2C7D2C81
:1008F800842CF409F509F40A0319F50A0130F70004
:10090800F31F872C882C8D2CF209F309F20A03199E
:10091800F30A720873040319922C932CC02C01302B
:10092800F6009F2C01300310F20DF30DFF3E031D5E
:10093800972C0130F607F31FA22CA32C962C7308D2
:100948007502031DA92C72087402031CAC2CAD2C73
:10095800B32C7208F4027308031CF503F502013086
:100968000310F30CF20CFF3E031DB42C0130F60209
:10097800031DBF2CC02CA32C77080319C42CC52C2D
:10098800CA2CF409F509F40A0319F50A7508F300E5
:100998007408F200080083120313681CD42CD52CA9
:1009A800E02C2E08F6002C08F7002D08F8000A1293
:1009B8008A1150250A128A1183120313B01FE52CDD
:1009C800E62CE82CAF01B001B101B201022D2030B4
:1009D800F2000030F300831203132C08F4002D08F2
:1009E800F5000A128A111E230A128A110130831295
:1009F8000313B1070318B20A0030B2073208803A6D
:100A0800FB003008803A7B02031D0C2D2F083102B1
:100A1800031C0F2D102DEB2C831203136818152DB2
:100A2800162D212D2E08F6002C08F7002D08F800A9
:100A38000A128A1150250A128A1108008312031318
:100A4800A001A101442D0130F2000030F30020087C
:100A58007807F900790884000008FA00FB017A0891
:100A6800F4007B08F5000A128A11E6250A128A1199
:100A7800013083120313A0070318A10A0030A1074D
:100A880020087807F9007908840083130008031DFB
:100A98004E2D4F2D272D080083120313AA01AB01F9
:100AA8006D2D2908F900FA017908F2007A08F30097
:100AB8007708F4007808F5000A128A111E230A1232
:100AC8008A11013083120313AA070318AB0A0030F6
:100AD800AB072A087607F900790884008313000811
:100AE800A9002908031D792D7A2D552D0800F60136
:100AF800F701721C802D812D872D7408F6070318C5
:100B0800F70A7508F70701300310F40DF50DFF3EDD
:100B1800031D882D01300310F30CF20CFF3E031D5A
:100B28008F2D72087304031D9A2D9B2D7D2D770838
:100B3800F3007608F2000800523083120313D50040
:100B48005008D6000030D700D801D901DF01E001F4
:100B58005630CB000030CC005108CD005530CE00C7
:100B68000A128A11C3250A128A118312031358081C
:100B78005007D400540884008313800108008312AE
:100B880003134D08CF00D52D4B08BF004C08C000FB
:100B98004F30C1004E08C2000A128A116C220A1294
:100BA8008A11831203134F0884000A128A1130260F
:100BB8000A128A11003A031DE22DE32DC82DCB013C
:100BC800CC0108007218E92DED2D831203130814C7
:100BD800F02D83120313081074088700881421303D
:100BE800F7007630F600F60BF72DF70BF72D00001F
:100BF8008312031388102130F7007630F600F60BC5
:100C0800032EF70B032E000008008B1C0C2E0D2E54
:100C1800182E831603132008013EA000210803188C
:100C2800013E003EA1008B1071088A00700E8300FF
:100C3800FE0E7E0E0900F91B222E232E242E2F2EA7
:100C48007809FA007909FB00FA0A0319FB0A7A08FD
:100C5800F8007B08F900080006308A000408840AB6
:100C68008207003425343034343464340034253475
:100C780030346434003464008001840A04060319A3
:080C880000340406402E0800B0
:02400E003A3F37
:00000001FF
