:060000000A128A11EE2F26
:100DC40055344E344C344F3443344B340034313482
:100DD40032343334343400344C344F3443344B34AD
:100DE40000347E088A007F0882000A128A11F326E2
:100DF4000A128A118000840A04087D06031900344B
:100E0400FF0A0319FE0AF72E7018092F0D2F8312FB
:100E140003130714102F831203130710720886009C
:100E240087142130F5007630F400F40B172FF50BFE
:100E3400172F00008312031387102130F50076303A
:100E4400F400F40B232FF50B232F00000800FA0104
:100E5400FB01472F0130F0000030F1007A087607DB
:100E6400F700770884000008F800F9017808F20018
:100E74007908F3000A128A1106270A128A1101302E
:100E8400FA070318FB0A0030FB077A087607F70015
:100E94007708840083130008031D512F522F2C2F31
:100EA40008003A308400831203134D088313800032
:100EB400840A4E088000840A4F088000840A50087F
:100EC4008000840A51088000413084002430A0004E
:100ED4000730A10083130008A200040AA30020081D
:100EE400840022088000040AA00023088400A10BC7
:100EF4006C2F2B30840048088000840A4908800045
:100F0400840A4A088000840A4B088000840A4C083A
:100F1400800083160313860187018312031386015D
:100F2400870124308316031398009030831203132F
:100F3400980040308316031399000030F000F1004C
:100F44000E30F2000030F3000A128A1106270A124A
:100F54008A113A30F6000A128A1129270A128A11D4
:100F640083120313BF01C001831203138C1EBB2F12
:100F7400BC2FB62F3F08303E84001A08831380002C
:100F84008C120130F0000030F1003F08303E840044
:100F94000008A000A1012008F2002108F3000A12B1
:100FA4008A1106270A128A11013083120313BF071C
:100FB4000318C00A0030C0074008803AFF008030A0
:100FC4007F02031DE72F04303F02031CEA2FEB2F9F
:100FD400B62F0A128A11002883135230FD000630FE
:100FE400FE00E230FF00413084000A128A11F72625
:0C0FF4000A128A1183010A128A11532F7D
:02400E003A3F37
:00000001FF
