:060000000A128A110E280D
:10000800FE00030EF0000A08F1007F08F2000A1251
:100018008A1117280A128A111128F301F4018301A1
:100028000A128A119B280B1D1A281B2892280130B6
:10003800F3070318F40A0030F4077408803AFF0045
:1000480080307F02031D2A283230730203182D28BE
:100058002E28332802308312031386008D2832306D
:1000680073067404031D39283A283F280630831282
:10007800031386008D28643073067404031D452815
:1000880046284B2804308312031386008D289630A7
:1000980073067404031D5128522857280C30831204
:1000A800031386008D28C83073067404031D5D2869
:1000B8005E28632808308312031386008D28FA30DF
:1000C80073067404031D69286A286F28093083128F
:1000D800031386008D282C307306031D77287403BC
:1000E800031D772878287D280130831203138600A2
:1000F8008D285E307306031D85287403031D85282B
:1001080086288D280330831203138600F301F40137
:100118008D283C308312031381000B117208FF00F5
:1001280071088A00700E8300FE0E7E0E0900831689
:100138000313860183120313860107308316031302
:1001480081003C308312031381008B168B17AB2878
:060158000A128A110E28B4
:02400E003A3F37
:00000001FF
