:060000000A128A11FC2F18
:100E4C008316031387018312031387010130831266
:100E5C00031387000D30F200AF30F100B630F00014
:100E6C00F00B362FF10B362FF20B362F0000023021
:100E7C008312031387000D30F200AF30F100B6304F
:100E8C00F000F00B472FF10B472FF20B472F000010
:100E9C0004308312031387000D30F200AF30F100E1
:100EAC00B630F000F00B582FF10B582FF20B582FD7
:100EBC00000008308312031387000D30F200AF30AE
:100ECC00F100B630F000F00B692FF10B692FF20B2B
:100EDC00692F000001308312031387000D30F200DC
:100EEC00AF30F100B630F000F00B7A2FF10B7A2F07
:100EFC00F20B7A2F000003308312031387000D309E
:100F0C00F200AF30F100B630F000F00B8B2FF10B8C
:100F1C008B2FF20B8B2F00000230831203138700F0
:100F2C000D30F200AF30F100B630F000F00B9C2F1A
:100F3C00F10B9C2FF20B9C2F000006308312031335
:100F4C0087000D30F200AF30F100B630F000F00B3E
:100F5C00AD2FF10BAD2FF20BAD2F0000043083122F
:100F6C00031387000D30F200AF30F100B630F00003
:100F7C00F00BBE2FF10BBE2FF20BBE2F00000C306E
:100F8C008312031387000D30F200AF30F100B6303E
:100F9C00F000F00BCF2FF10BCF2FF20BCF2F000067
:100FAC0008308312031387000D30F200AF30F100CC
:100FBC00B630F000F00BE02FF10BE02FF20BE02F2E
:100FCC00000009308312031387000D30F200AF309C
:100FDC00F100B630F000F00BF12FF10BF12FF20B0A
:100FEC00F12F00002C2F0A128A11002883010A12FB
:040FFC008A11262F01
:02400E003A3F37
:00000001FF
