:060000000A128A11EE2F26
:100ED4007E088A007F0882000A128A116A270A1291
:100EE4008A118000840A04087D0603190034FF0A6D
:100EF4000319FE0A6E2F3F340034063400345B3489
:100F040000344F340034663400346D3400347D349E
:100F14000034073400347F3400346F340034363006
:100F240084002030F0001430F10083130008F20034
:100F3400040AF3007008840072088000040AF000B8
:100F440073088400F10B972F83120313B401B501C6
:100F54008316031381130614861487018312031363
:100F640087010618B62FB72FC12F061CBA2FBB2F27
:100F7400B72F0130B4070318B50A0030B507861837
:100F8400C42FC52FCF2F861CC82FC92FC52FFF30C4
:100F9400B4070318B50AFF30B5073508803AFF00D7
:100FA40080307F02031DD82F0A303402031CDB2F4C
:100FB400DC2FE02F83120313B401B5018312031352
:100FC4003408F0007007203E840083130008870073
:100FD400B32F0A128A11002883134A30FD00073008
:100FE400FE007D30FF00363084000A128A116E271D
:0C0FF4000A128A1183010A128A11912F3F
:02400E003A3F37
:00000001FF
